:100000000C946B000C9493000C9493000C9493004C
:100010000C9493000C9493000C9493000C94930014
:100020000C9493000C9493000C9493000C94930004
:100030000C9493000C9493000C9493000C949300F4
:100040000C94950C0C9493000C949E0F0C94D00F70
:100050000C9493000C9493000C9493000C949300D4
:100060000C9497060C949300CB02B902BC02BF0219
:10007000C202C502C802000000080002010000031D
:100080000407000000000000000001020408102026
:10009000408001020408102001020408102004041A
:1000A0000404040404040202020202020303030320
:1000B00003030000000023002600290000000000C8
:1000C000250028002B0000000000240027002A0043
:1000D0006D03B505001011241FBECFEFD8E0DEBFC1
:1000E000CDBF12E0A0E0B1E0E2E5F6E202C005908B
:1000F0000D92A032B107D9F723E0A0E2B2E001C02F
:100100001D92AE3BB207E1F710E0C6EDD0E004C0AF
:100110002297FE010E94B811C03DD107C9F70E9485
:1001200044100C9427130C9400000F93CF93DF938B
:100130001F92CDB7DEB71982DC01ED91FC910284EC
:10014000F385E02D01E09E012F5F3F4F09958981E6
:100150000F90DF91CF910F910895CF93DF931F926E
:10016000CDB7DEB71982DC01ED91FC910684F785ED
:10017000E02D21E0AE014F5F5F4F099589810F901F
:10018000DF91CF9108950F93CF93DF931F92CDB757
:10019000DEB72983DC01ED91FC910484F585E02D27
:1001A00001E09E012F5F3F4F09950F90DF91CF91A6
:1001B0000F910895CF93DF931F92CDB7DEB7498398
:1001C000DC01ED91FC910088F189E02D21E0AE0188
:1001D0004F5F5F4F09950F90DF91CF91089584E0B5
:1001E000089580E0089580E00895089580E00895DE
:1001F00080E0089580E00895FC01A285B3858781A1
:100200009C9161110CC0982B9C93A289B3899C91FD
:100210008781809589238C9320E63AEE14C08095DF
:1002200089238C93A289B3898C919781892B8C9394
:10023000A685B785978120E63AEE8C91892319F43B
:100240002115310529F481E0232B29F480E008955C
:1002500021503109F2CF0895DC011C96ED91FC91FB
:100260001D97208116968C91282381E009F480E067
:100270000895EF92FF921F93CF93DF931F92CDB714
:10028000DEB77C01162FDC01ED91FC910280F38139
:10029000E02D49830995F70185A3E10FF11D968DA6
:1002A000292F209528234981242B892B282347890E
:1002B000D70156966C91C70102960F90DF91CF91AE
:1002C0001F91FF90EF900C94C3000F931F93CF9357
:1002D000DF93EC01162F61E070E080E090E00E9477
:1002E0000E0DCE01810F911D8C01FC0147896E8995
:1002F000CE0102960E949500F801968D8923DF9128
:10030000CF911F910F910895A8EEB3E09A01AB0130
:100310000E94BC11AB01BC0184E592E00E94720511
:1003200084E592E00C9468050F931F93CF93DF93BD
:10033000EC018C010E5F1F4F44E650E060E070E07E
:10034000C8010E94840142E06E89C8010E949500A4
:100350008DA386FF07C0282F2F7B42E06E89C8013E
:100360000E94C3004EE06E89C8010E9495008DA3D3
:10037000982F9F7D39F0282F20724EE06E89C8019A
:100380000E94C3004FE06E89C8010E9495008DA3B2
:10039000982F937811F483FD0CC0282F24772860C0
:1003A0004FE06E89C801DF91CF911F910F910C949E
:1003B000C300DF91CF911F910F91089584E592E0E2
:1003C0000E94950584E592E00E94B20591E08111BA
:1003D00090E0892F0895FC01A085B18586819C91CC
:1003E000611109C0982B9C93A089B1899C91868149
:1003F0008095892308C0809589238C93A089B18931
:100400008C919681892B8C930895EF92FF920F9394
:100410001F93CF93DF931F92CDB7DEB77C01FC0112
:1004200000811181C80169830E94111369816817D5
:1004300019F0C8010E941913C7010F90DF91CF91E5
:100440001F910F91FF90EF9008958091210280936A
:100450002002109243021092420226E040E052EC49
:1004600061E070E08DE193E00E943C0F80912B02EF
:1004700090912C02DC01ED91FC910190F081E02D36
:10048000099567E871E082E292E00E94360A60E036
:100490008EE00E94C10D61E084E00E94C10D62E027
:1004A00088E00E94C10D62E08CE00E94C10D62E014
:1004B0008AE00E94C10D61E084E00E94FA0D61E0D3
:1004C00088E00E94FA0D61E08CE00E94FA0D61E084
:1004D0008AE00E94FA0D88E492E00E94930C88E47E
:1004E00092E00C94990B8EE00E947B0D2AE0AC0107
:1004F000249FC001259F900D112408950E9473022E
:1005000041E08031974214F46EE001C06DE088E470
:1005100092E00E94FA0B0E94730264E670E00E946F
:1005200080114AE050E088E492E00C94531140E0DE
:1005300060E088E492E00E94FA0B6EE171E082E2F2
:1005400092E00E94360ABC0188E492E00E94931077
:1005500040E066E088E492E00E94FA0B8091280275
:1005600090E087309105E8F4FC01EC5CFF4F0C94BF
:10057000B61162E271E011C06DE271E00EC065E398
:1005800071E00BC06BE371E008C064E471E005C08A
:100590006EE471E002C066E571E088E492E00C94DC
:1005A00093100895CF93C82F41E060E088E492E073
:1005B0000E94FA0BC13031F040F0C23069F46AE6B3
:1005C00071E005C061E671E002C066E571E088E4B3
:1005D00092E0CF910C949310CF910895CF93C82FB0
:1005E00088E00E94300E892B31F4C11103C0C09104
:1005F000060101C0C1508AE00E94300E892B39F4F7
:1006000080910601C81711F0CF5F01C0C0E08CE0F7
:100610000E94300E892B29F46C2F80E090E00E941C
:1006200019138C2F0E94D2028C2FCF910895CF9353
:10063000DF9300D0CDB7DEB780912502813041F540
:10064000809128021A821982882311F061E001C08A
:1006500060E0CE0101960E94050241E060E088E47E
:1006600092E00E94FA0B80E090E00E94111381302A
:1006700031F040F0823061F46AE671E005C061E675
:1006800071E002C066E571E088E492E00E94931098
:100690000F900F90DF91CF91089588E492E00E942F
:1006A000EC0B0E947E020E949702809120020E9421
:1006B000EE028093200288E00E94300E4AE050E073
:1006C000BC018DE193E00E945B110E9417036CE373
:1006D00070E080E090E00C940E0DCF93DF9322E069
:1006E00040E167E288E492E00E94700B10922202DF
:1006F0001092230281E0809324021092250210922E
:1007000026028093270210922802809329021092D9
:100710002A0281E090E00E94EA1190932E028093D9
:100720002D0281E791E09093300280932F028FE7B2
:1007300091E0909332028093310288E891E09093A7
:1007400034028093330210923C0288EE93E0A0E0E2
:10075000B0E080933D0290933E02A0933F02B0939D
:10076000400285E1809341021092430210924202BE
:1007700010924402109245021092460210924702D3
:1007800086E290E00E945310EC0182EF91E09983A1
:10079000888386EC91E09B838A838FEF8C838D83A3
:1007A00088E68E8B87E0E8E0F1E0DE015796019065
:1007B0000D928A95E1F787E0EFE0F1E0DE015E96C9
:1007C00001900D928A95E1F7D0932C02C0932B02F1
:1007D00080E090E00E94111380932102DF91CF917D
:1007E0000895CF92DF92EF92FF920F931F93CF93D2
:1007F000DF931F92CDB7DEB7F62E122FE32E84E5DE
:1008000092E049830E9495054981642F84E592E036
:100810000E94290560E084E592E00E949F05811115
:1008200023C0402F6F2D84E592E00E94920588231B
:10083000D9F0F12EC12EDE2C1C2D1F1984E592E07B
:100840000E94D104892B11F0101780F084E592E00A
:100850000E94D104892B29F084E592E00E94D904FA
:10086000F5CF81E0101751F080E008C084E592E0F8
:100870000E94D904F60181936F01DECF0F90DF91C2
:10088000CF911F910F91FF90EF90DF90CF9008953F
:10089000CF92DF92FF920F931F93CF93DF931F921C
:1008A000CDB7DEB7042F122F422F84E592E0598393
:1008B0000E94920559818823D9F0F02EC02ED52EA2
:1008C0000C2D0F1984E592E00E94D104892B11F0C0
:1008D000011780F084E592E00E94D104892B29F071
:1008E00084E592E00E94D904F5CF81E0011751F030
:1008F00080E008C084E592E00E94D904F60181936B
:100900006F01DECF0F90DF91CF911F910F91FF907C
:10091000DF90CF9008950F931F93CF93DF93142F01
:10092000E90184E592E00E949505612F84E592E05B
:100930000E942905402F50E0BE0184E592E00E940C
:10094000FC0484E592E00E94B20591E0811190E000
:10095000892FDF91CF911F910F9108950F931F93CE
:10096000CF93DF931F92CDB7DEB78A0184E592E083
:1009700029830E9495052981422F50E0B80184E522
:1009800092E00E94FC0484E592E00E94B20591E0AE
:10099000811190E0892F0F90DF91CF911F910F91DE
:1009A00008958091840290E020918502821B910934
:1009B00008952091850280918402281750F4E22F37
:1009C000F0E0EA57FD4F808190E02F5F2093850291
:1009D00008958FEF9FEF0895E09185028091840242
:1009E000E81730F4F0E0EA57FD4F808190E0089579
:1009F0008FEF9FEF08950895CF92DF92EF92FF92CD
:100A00000F931F93CF93DF937C01CB018A01209139
:100A10006002222389F0EB016B01C40ED51ECC15B8
:100A2000DD0569F06991D701ED91FC910190F081AC
:100A3000E02DC7010995F3CF642F0E946E06C8010F
:100A4000DF91CF911F910F91FF90EF90DF90CF90AA
:100A50000895CF93DF931F92CDB7DEB769832091BE
:100A600060022223D1F020916102203240F021E087
:100A700030E0FC013383228380E090E015C0809158
:100A80006202E82FF0E0ED59FD4F998190838F5F6E
:100A9000809362028093610205C061E0CE010196FD
:100AA0000E946E0681E090E00F90DF91CF91089553
:100AB000FC011382128248EE53E060E070E0448350
:100AC0005583668377838CEF91E0918380830895CB
:100AD00010928502109284021092620210926102BA
:100AE0000C94B9059A01AB0160E074E284EF90E0E8
:100AF0000E94941120513109410951095695479599
:100B0000379527952093B8000895862F413208F035
:100B100040E266E872E00E94D70510928502809359
:100B20008402089521E00C94850581E080936002A1
:100B300060938302109262021092610208950F93F3
:100B4000062F21E04091610263E672E0809183020A
:100B50000E941B06109262021092610210926002C3
:100B60000F91089561E00C949F0584E592E00C9448
:100B700058051092130381E0809311031092100323
:100B800061E082E10E94FA0D61E083E10E94FA0DCA
:100B9000E9EBF0E080818E7F808380818D7F808390
:100BA00088E48093B80085E48093BC0008954132C6
:100BB00008F03FC0909113039111FCCF91E0909306
:100BC0001303209311032FEF2093A6021092EB0240
:100BD000240F2093EA029093120390911203880F3E
:100BE000892B8093120380911003813041F410927D
:100BF0001003809112038093BB0085EC01C085EE49
:100C00008093BC00809113038130E1F38091EB026B
:100C1000841710F44091EB022CEE32E0FB01D90175
:100C20008A2F821B841718F48D918193F9CF842F1A
:100C3000089580E008950F93413208F046C09091E6
:100C400013039111FCCF92E09093130300931103CF
:100C50009FEF9093A6021092EB024093EA02FB01F1
:100C60006CEE72E0DB019A2F961B941718F49191A9
:100C70009D93F9CF1092120390911203880F892B44
:100C80008093120380911003813041F4109210037D
:100C9000809112038093BB0085EC01C085EE8093A8
:100CA000BC00222321F0809113038230E1F3809174
:100CB000A6028F3F61F08091A602803251F08091B0
:100CC000A602803341F483E007C081E005C080E0E4
:100CD00003C082E001C084E00F910895613298F46E
:100CE00020911303243089F46093C802FC018AEC3C
:100CF00092E0DC012A2F281B261718F421912D934E
:100D0000F9CF80E0089581E0089582E0089585EDAF
:100D10008093BC008091BC0084FDFCCF1092130333
:100D2000089585EC8093BC001092130308951F92E0
:100D30000F920FB60F9211242F933F934F935F930F
:100D40006F937F938F939F93AF93BF93EF93FF9393
:100D50008091B900887F803609F49CC068F588329C
:100D600009F45BC090F4803109F454C038F488234E
:100D700009F4F5C0883009F44DC0F5C0883109F494
:100D80004CC0803209F45DC0EEC0803409F468C004
:100D900048F4803309F455C0883309F0E4C08093E7
:100DA000A602A8C0803509F44FC0883509F45DC09B
:100DB000883409F0D8C0D5C0883909F4C6C0A8F471
:100DC000883709F467C038F4883609F463C080377F
:100DD00009F460C0C8C0883809F4B7C0803909F484
:100DE0005FC0803809F0BFC05BC0803B09F485C09C
:100DF00038F4803A09F466C0883A09F47EC0B3C07A
:100E0000803C09F4A6C0883C09F4A3C0883B09F4DF
:100E100089C0A9C08091120310C09091EB0280910B
:100E2000EA02981770F5E091EB0281E08E0F809353
:100E3000EB02F0E0E451FD4F80818093BB0085EC34
:100E400085C08093A6028DC0E091EB0281E08E0FF9
:100E50008093EB028091BB00F0E0E451FD4F808372
:100E60009091EB028091EA026DC0E091EB0281E08B
:100E70008E0F8093EB028091BB00F0E0E451FD4FB8
:100E800080838091110381116CC081E080931003F5
:100E900084EA60C083E0809313031092A702CFCF4F
:100EA0008091A702803208F050C0E091A70281E053
:100EB0008E0F8093A7028091BB00F0E0E855FD4FB4
:100EC0008083BDCF8091A702803230F4E091A702E9
:100ED000F0E0E855FD4F10820E9487066091A7025E
:100EE00070E0E0910C03F0910D0388EA92E009951F
:100EF0001092A7020E94910636C084E080931303EB
:100F00001092C9021092C802E0910E03F0910F03F3
:100F100009958091C802811105C081E08093C802C3
:100F20001092CA02E091C90281E08E0F8093C9023B
:100F3000F0E0E653FD4F80818093BB009091C902A1
:100F40008091C802981708F47ACF85E88093BC0096
:100F50000AC085EC8093BC001092130304C0109269
:100F6000A6020E948706FF91EF91BF91AF919F91DA
:100F70008F917F916F915F914F913F912F910F9042
:100F80000FBE0F901F9018959F92AF92BF92CF9275
:100F9000DF92EF92FF920F931F93CF93DF93EC01B9
:100FA000A62E142FB22E9A8C0E94DF0CCB8CDC8CD8
:100FB000ED8CFE8CA70196010E949411F694E794A3
:100FC000D794C7946C157D058E059F0510F041E000
:100FD000901240E01230B9F128F4112351F0113091
:100FE000A1F0D7C0133009F450C0143009F484C004
:100FF000D0C0EB85FC85EB0DF11D41117AC08A2D27
:10100000873008F086E0805D75C05A2D543608F0B0
:1010100053E62B2D30E0EB85FC85E20FF31F4111E9
:1010200006C0852F6AE00E947411805D01C080E2D5
:1010300080832F5F3F4FEB85FC85E20FF31F41114B
:10104000A6C0852F9FC02A2D273008F026E08B2DC3
:1010500090E0EB85FC85E80FF91F411106C0AF85D4
:10106000B889A20FB11D3C9101C030E230830196D6
:10107000EB85FC85E80FF91F41113BC0AF85B889AE
:10108000A20FB11D11968C9135C05A2D573308F01F
:1010900056E38B2D90E0EB85FC85E80FF91F41119D
:1010A00006C0A989BA89A50FB11D2C9101C020E203
:1010B0002083EB85FC859C012F5F3F4FE20FF31FE0
:1010C000411107C0A989BA89A50FB11D11962C91AC
:1010D00001C020E220830296EB85FC85E80FF91F12
:1010E000411107C0A989BA89A50FB11D12968C912B
:1010F00001C080E280834DC01A2D143608F013E63B
:101100002B2D30E0EB85FC85E20FF31F41110AC067
:101110006F8D862F90E001976AE070E00E94801149
:10112000605D01C060E26083EB85FC85C9010196CA
:10113000E80FF91F41110AC06F8D862F90E00197CB
:101140006AE070E00E948011805D01C080E28083CF
:10115000EB85FC85B9016E5F7F4FE60FF71F4111EC
:1011600006C0812F6AE00E947411805D01C080E298
:1011700080832D5F3F4FEB85FC85E20FF31F41110C
:1011800006C0812F6AE00E947411905D01C090E258
:101190009083DF91CF911F910F91FF90EF90DF909F
:1011A000CF90BF90AF909F900895CF93DF93EC01C5
:1011B00089859A85DC01ED91FC910280F381E02D17
:1011C00060E00995282F2695269526952E71922F59
:1011D000990F990F920F8F70980F9B8B9883898529
:1011E0009A85DC01ED91FC910280F381E02D61E0B4
:1011F0000995282F2695269526952E71922F990FC1
:10120000990F920F8F70980F9C8B998389859A857F
:10121000DC01ED91FC910280F381E02D62E0099503
:10122000282F2695269526952E71922F990F990F86
:10123000920F8F70980F9D8B9B8389859A85DC0117
:10124000ED91FC910280F381E02D63E00995282F58
:101250002695269526952E71922F990F990F920F0C
:101260008F70980F9E8B9D8389859A85DC01ED9107
:10127000FC910280F381E02D64E00995282F2695EA
:10128000269526952E71922F990F990F920F8F7098
:10129000980F9F8B9F8389859A85DC01ED91FC9146
:1012A0000280F381E02D65E00995282F269526958B
:1012B00026952E71922F990F990F920F8F70980F7C
:1012C000988F988789859A85DC01ED91FC91028041
:1012D000F381E02D66E00995982F9F7091508695D7
:1012E000869586958E71282F220F220F280F920F38
:1012F000998F9E830E94DF0C6AA37BA38CA39DA37E
:10130000DF91CF9108956F927F928F929F92BF92BB
:10131000CF92DF92EF92FF920F931F93CF93DF93C1
:10132000EC010E94DF0C0AA11BA12CA13DA1601BB6
:10133000710B820B930B28EE33E040E050E00E94EB
:1013400094110F89188D023081F0602F70E081E0D8
:1013500090E0083010F480E090E0860F971F8170D5
:101360009927EEE1BE2EB80E0BC0812F90E083705E
:101370009927892B19F47DE1B72E02C06CE1B62EB6
:101380008B8939014A01680E711C811C911CC401B2
:10139000B3013CE3C32ED12CE12CF12CA701960123
:1013A0000E94941168838C8939014A01680E711C6E
:1013B000811C911CC401B301A70196010E949411E4
:1013C00069838D8969017A01C80ED11CE11CF11C69
:1013D000C701B60128E130E040E050E00E949411DE
:1013E0006B83898D820F873010F48E8301C01E823B
:1013F0008E8939014A01680E711C811C911CC4013F
:10140000B3012B2D30E02F5F3F4F442737FD409530
:10141000542F0E949411620F6D83CA01B901600FAD
:10142000711D811D911D2DE030E040E050E00E94D3
:101430009411620F6F83CA01B901610F711D811D83
:10144000911D24E630E040E050E00E94941168874E
:10145000DF91CF911F910F91FF90EF90DF90CF9090
:10146000BF909F908F907F906F9008958F929F92E2
:10147000AF92BF92EF92FF920F931F93CF93DF93A0
:10148000EC017B018AA09BA0ACA0BDA00E94DF0C58
:10149000681579058A059B0520F41AA21BA21CA2D7
:1014A0001DA288A199A1009721F4CE010E94D50820
:1014B00019C04AA15BA16CA17DA14115510561052F
:1014C000710599F34A015B01880E991EA11CB11C9C
:1014D0000E94DF0C681579058A059B0530F7CE015F
:1014E0000E9483092B81822F6CE00E94741191115C
:1014F00001C09CE09A8381E02C3008F480E08C836A
:10150000F70101900020E9F73197EE19FF0911E08A
:101510001E0F90E0492F50E04E175F0758F52D85BC
:101520003E85D9010D900020E9F7BD016150710998
:101530004B01821A930A80E04E0D5F1D682F70E008
:1015400068157905A8F4620F731FDA01BC90DB01FE
:101550006C91B6120BC0882349F08A3010F41F5FDB
:1015600005C08C3010F41E5F01C01D5F8F5FE6CF99
:101570009F5FD0CF8B859C850E948212812F90E047
:101580000E94EA119C878B8710E0B12C8B2D90E094
:10159000F70101900020E9F73197EE19FF098E1746
:1015A0009F0708F08BC0F701E80FF91F8081ED85D8
:1015B000FE859081891308C007E0212F40E06E81ED
:1015C000CE010E94C40777C09181891303C06C814A
:1015D000660F06C0928189130BC06C81660F6C5F29
:1015E00008E0212F42E0CE010E94C4071E5F64C0C4
:1015F0009381891305C004E0212F41E06D81F3CF71
:101600009481891305C003E0212F41E06A81EBCF6B
:101610009581891305C003E0212F41E06B81E3CF61
:101620009681891305C002E0212F41E06981DBCF5B
:101630009781891305C005E0212F41E06F81D3CF49
:101640009085891305C001E0212F41E06881CBCF4F
:101650009185891305C006E0212F41E06885C3CF3D
:101660009285891308C08F8190E00696682F660FD7
:10167000680F05E008C0938589130CC08E81682F20
:10168000660F680F07E0212F43E0CE010E94C407D8
:101690001D5F12C09485891309C006E0212F44E024
:1016A0006885CE010E94C4071C5F06C0EB85FC85DF
:1016B000E10FF11D80831F5FB39468CFEB85FC853C
:1016C000E10FF11D10828B859C85DF91CF911F91D9
:1016D0000F91FF90EF90BF90AF909F908F900895E3
:1016E000FC01138212828CE092E0918380836483F8
:1016F00041872287138608951F93CF93DF93EC01D0
:10170000162F6C8184E592E00E949505E0915402C9
:10171000F09155026B85612B0190F081E02D84E5FD
:1017200092E0099584E592E0DF91CF911F910C94AE
:10173000B20528E0FC01238760E00C947C0B1F932A
:10174000CF93DF93EC01162F64600E947C0B81E045
:1017500090E00E94360D612F6B7FCE010E947C0BC2
:1017600082E390E0DF91CF911F910C94360D1F938F
:10177000CF93DF93EC01162F0E947C0B612FCE01DB
:10178000DF91CF911F910C949F0BEF92FF921F93CB
:10179000CF93DF931F92CDB7DEB77C01162F607F0A
:1017A000642B49830E94B70B80E1189FB00111247C
:1017B0004981642BC7010F90DF91CF911F91FF905A
:1017C000EF900C94B70B41E00E94C50B81E090E0D4
:1017D000089540E00C94C50B61E00E94E90B80ED98
:1017E00097E00C94360D62E00E94E90B80ED97E0E3
:1017F0000C94360DCF93DF93CDB7DEB728970FB695
:10180000F894DEBF0FBECDBF28E0E6E1F1E0DE01D7
:10181000119601900D922A95E1F7FC01208524177D
:1018200010F44FEF420FFE013196E40FF11DE40F6B
:10183000F11D2081260F2068622F28960FB6F8949C
:10184000DEBF0FBECDBFDF91CF910C94E90BFC0141
:101850006681262F246026836C600C94E90BCF935D
:10186000DF93EC01423018F08D8188608D834887CA
:10187000222329F0413019F48D8184608D8362E345
:1018800070E080E090E00E940E0D6B85CE010E941A
:101890007C0B68EE73E080E090E00E940E0D60E348
:1018A000CE010E94B70B84E991E10E94360D60E3FE
:1018B000CE010E94B70B84E991E10E94360D60E3EE
:1018C000CE010E94B70B86E990E00E94360D60E2DF
:1018D000CE010E94B70B6D816062CE010E94E90BC0
:1018E00084E08E83CE010E94270CCE010E94EC0B77
:1018F00082E08F8366E0CE010E94E90BCE01DF918A
:10190000CF910C94F30BCF93DF93EC0184E592E03D
:101910000E9468051D8220E04A856985CE01DF911D
:10192000CF910C942F0C0C94830C1F920F920FB636
:101930000F9211242F933F938F939F93AF93BF9355
:101940008091150390911603A0911703B09118038D
:101950003091140323E0230F2D3720F40196A11DAD
:10196000B11D05C026E8230F0296A11DB11D2093CD
:1019700014038093150390931603A0931703B09359
:1019800018038091190390911A03A0911B03B09141
:101990001C030196A11DB11D8093190390931A0396
:1019A000A0931B03B0931C03BF91AF919F918F91A4
:1019B0003F912F910F900FBE0F901F9018952FB74A
:1019C000F89460911503709116038091170390911C
:1019D00018032FBF08953FB7F89480911903909191
:1019E0001A03A0911B03B0911C0326B5A89B05C048
:1019F0002F3F19F00196A11DB11D3FBF6627782F1B
:101A0000892F9A2F620F711D811D911D42E0660F73
:101A1000771F881F991F4A95D1F70895CF92DF92BB
:101A2000EF92FF92CF93DF936B017C010E94EB0C4E
:101A3000EB01C114D104E104F10489F00E94731197
:101A40000E94EB0C6C1B7D0B683E734090F381E0B1
:101A5000C81AD108E108F108C851DC4FEACFDF917C
:101A6000CF91FF90EF90DF90CF900895019739F0DC
:101A7000880F991F880F991F02970197F1F7089512
:101A8000789484B5826084BD84B5816084BD85B559
:101A9000826085BD85B5816085BDEEE6F0E0808120
:101AA00081608083E1E8F0E0108280818260808341
:101AB000808181608083E0E8F0E0808181608083C4
:101AC000E1EBF0E0808184608083E0EBF0E08081F6
:101AD00081608083EAE7F0E0808184608083808198
:101AE0008260808380818160808380818068808340
:101AF0001092C10008958E3008F08E5087702091AA
:101B0000070190E4299F90011124822B80937C008F
:101B100080917A00806480937A0080917A0086FDBB
:101B2000FCCF809178002091790090E0922B08956D
:101B3000833081F028F4813099F08230A1F008954B
:101B40008730A9F08830B9F08430D1F480918000DA
:101B50008F7D03C0809180008F77809380000895EF
:101B600084B58F7702C084B58F7D84BD0895809140
:101B7000B0008F7703C08091B0008F7D8093B0005C
:101B80000895CF93DF9390E0FC01E657FF4F249137
:101B9000FC01E256FF4F8491882349F190E0880FC1
:101BA000991FFC01EA53FF4FA591B49184549F4FB4
:101BB000FC01C591D4919FB7611108C0F8948C9134
:101BC000209582238C93888182230AC0623051F44D
:101BD000F8948C91322F309583238C938881822BBB
:101BE000888304C0F8948C91822B8C939FBFDF91E3
:101BF000CF9108950F931F93CF93DF931F92CDB78B
:101C0000DEB7282F30E0F901EA58FF4F8491F9013F
:101C1000E657FF4F1491F901E256FF4F049100235C
:101C2000C9F0882321F069830E94980D6981E02F13
:101C3000F0E0EE0FFF1FE454FF4FA591B4919FB762
:101C4000F8948C91611103C01095812301C0812B00
:101C50008C939FBF0F90DF91CF911F910F910895AB
:101C6000CF93DF93282F30E0F901EA58FF4F84919A
:101C7000F901E657FF4FD491F901E256FF4FC491A5
:101C8000CC2391F081110E94980DEC2FF0E0EE0F23
:101C9000FF1FEE54FF4FA591B4912C912D2381E0AD
:101CA00090E021F480E002C080E090E0DF91CF91ED
:101CB0000895FC01818D228D90E0805C9F4F821BF6
:101CC00091098F7399270895FC01918D828D981742
:101CD00031F0828DE80FF11D858D90E008958FEF32
:101CE0009FEF0895FC01918D828D981761F0828D90
:101CF000DF01A80FB11D5D968C91928D9F5F9F7340
:101D0000928F90E008958FEF9FEF089586EF9FE008
:101D1000892B49F080E090E0892B29F00E94F60F92
:101D200081110C9400000895FC01848DDF01A80F3F
:101D3000B11DA35ABF4F2C91848D90E001968F73F3
:101D40009927848FA689B7892C93A089B1898C9112
:101D500080648C93938D848D981306C00288F389D8
:101D6000E02D80818F7D80830895CF93DF93EC01F8
:101D7000888D8823C9F0EA89FB89808185FD05C0AB
:101D8000A889B9898C9186FD0FC00FB607FCF5CFE5
:101D9000808185FFF2CFA889B9898C9185FFEDCF2D
:101DA000CE010E94940EE7CFDF91CF910895CF929C
:101DB000DF92FF920F931F93CF93DF931F92CDB7C4
:101DC000DEB76C01DC015B969C915B975C968C9115
:101DD0005C97981307C05096ED91FC9151978081C4
:101DE00085FD32C0F601038D10E00F5F1F4F0F73AA
:101DF0001127F02EF601848DF81211C00FB607FCE2
:101E0000F9CFD6015096ED91FC915197808185FFD5
:101E1000F1CFC60169830E94940E6981EBCF838D57
:101E2000E80FF11DE35AFF4F6083D6015B960C93D8
:101E30005B975296ED91FC915397808180628083ED
:101E400081E058968C930DC0D6015696ED91FC9189
:101E5000579760835096ED91FC91519780818064F3
:101E6000808381E090E00F90DF91CF911F910F91DF
:101E7000FF90DF90CF900895BF92CF92DF92EF92C4
:101E8000FF92CF93DF93EC016A017B01B22EE889C8
:101E9000F98982E08083411581EE5807610571055B
:101EA000A1F060E079E08DE390E0A70196010E9447
:101EB000941121503109410951095695479537959B
:101EC0002795211580E1380798F0E889F989108273
:101ED00060E874E88EE190E0A70196010E949411F9
:101EE0002150310941095109569547953795279554
:101EF000EC85FD853083EE85FF852083188EEC8987
:101F0000FD89B082EA89FB89808180618083EA89CA
:101F1000FB89808188608083EA89FB898081806871
:101F20008083EA89FB8980818F7D8083DF91CF91D7
:101F3000FF90EF90DF90CF90BF9008951F920F9287
:101F40000FB60F9211242F938F939F93EF93FF93CC
:101F5000E0912D03F0912E038081E0913303F09105
:101F6000340382FD12C09081809136038F5F8F739E
:101F700020913703821751F0E0913603F0E0E35EE1
:101F8000FC4F958F8093360301C08081FF91EF91C4
:101F90009F918F912F910F900FBE0F901F901895CA
:101FA0001F920F920FB60F9211242F933F934F93CE
:101FB0005F936F937F938F939F93AF93BF93EF93B1
:101FC000FF938DE193E00E94940EFF91EF91BF91FA
:101FD000AF919F918F917F916F915F914F913F91C1
:101FE0002F910F900FBE0F901F9018958DE193E0E9
:101FF0000E94590E21E0892B09F420E0822F0895D8
:102000001092200310921F0388EE93E0A0E0B0E04E
:102010008093210390932203A0932303B09324037E
:1020200084E192E090931E0380931D0385EC90E081
:1020300090932A038093290384EC90E090932C03DF
:1020400080932B0380EC90E090932E0380932D03DC
:1020500081EC90E09093300380932F0382EC90E02A
:10206000909332038093310386EC90E09093340395
:102070008093330310923603109237031092380383
:1020800010923903089508950E94400D0E94431054
:102090000E942502C6E8DEE00E944D032097E1F38E
:1020A0000E94860EF9CF0C94EA11CF92DF92EF9244
:1020B000FF920F931F93CF93DF936C017A01EB0193
:1020C000E60EF71E00E010E0CE15DF0561F0699125
:1020D000D601ED91FC910190F081E02DC6010995AA
:1020E000080F191FF1CFC801DF91CF911F910F91F8
:1020F000FF90EF90DF90CF9008956115710581F00A
:10210000DB010D900020E9F7AD0141505109461B5C
:10211000570BDC01ED91FC910280F381E02D0994D5
:1021200080E090E008950C947D10DC01ED91FC912D
:102130000190F081E02D09940F931F93CF93DF93CB
:10214000EC016DE00E9495108C016AE0CE010E94C6
:102150009510800F911FDF91CF911F910F910895DE
:102160008F929F92AF92BF92CF92DF92EF92FF92A7
:102170000F931F93CF93DF93CDB7DEB7A1970FB621
:10218000F894DEBF0FBECDBF7C01C42EE52FCB017E
:10219000D22E19A221E02D1510F02AE0D22E8E01A8
:1021A0000F5D1F4F8D2C912CA12CB12C6C2D7E2FEF
:1021B000A50194010E9494118C2DD29E80191124A6
:1021C000015011098A3014F4805D01C0895CF80166
:1021D0008083211531054105510521F0C22EE32FE1
:1021E000CA01E4CFB801C7010E947D10A1960FB6C5
:1021F000F894DEBF0FBECDBFDF91CF911F910F913D
:10220000FF90EF90DF90CF90BF90AF909F908F9016
:102210000895CF92DF92EF92FF920F931F93CF9387
:10222000DF93EC016A017B012115310579F4E88126
:10223000F9810190F081E02D642FDF91CF911F9102
:102240000F91FF90EF90DF90CF9009942A303105E5
:10225000E9F477FF1AC06DE20E9495108C014427C3
:102260005527BA014C195D096E097F092AE0CE0194
:102270000E94B010800F911FDF91CF911F910F919D
:10228000FF90EF90DF90CF9008952AE0B701A6016C
:10229000CE01DF91CF911F910F91FF90EF90DF90D2
:1022A000CF900C94B0109A01AB01662757FD609552
:1022B000762F0C9409110F931F93CF93DF93EC01AA
:1022C0009A01AB01662757FD6095762F0E94091190
:1022D0008C01CE010E949C10800F911FDF91CF9145
:1022E0001F910F9108950895991B79E004C0991FDB
:1022F000961708F0961B881F7A95C9F78095089560
:1023000097FB072E16F4009407D077FD09D00E94A2
:10231000C71107FC05D03EF4909581959F4F089515
:10232000709561957F4F0895A1E21A2EAA1BBB1BE1
:10233000FD010DC0AA1FBB1FEE1FFF1FA217B30791
:10234000E407F50720F0A21BB30BE40BF50B661FA7
:10235000771F881F991F1A9469F76095709580956B
:1023600090959B01AC01BD01CF010895EE0FFF1FB9
:102370000590F491E02D09940E94DB11A59F900D2A
:10238000B49F900DA49F800D911D11240895AA1B48
:10239000BB1B51E107C0AA1FBB1FA617B70710F050
:1023A000A61BB70B881F991F5A95A9F78095909582
:1023B000BC01CD010895A29FB001B39FC001A39FAE
:1023C000700D811D1124911DB29F700D811D11246E
:1023D000911D0895CF93DF938230910510F482E030
:1023E00090E0E091BC03F091BD0320E030E0A0E07C
:1023F000B0E0309739F14081518148175907B8F062
:102400004817590771F482819381109729F0139628
:102410009C938E9312972CC09093BD038093BC0322
:1024200027C02115310531F04217530718F0A901D3
:10243000DB0101C0EF019A01BD01DF010280F381E0
:10244000E02DD7CF21153105F9F0281B390B2430A9
:10245000310580F48A819B816115710521F0FB01B2
:102460009383828304C09093BD038093BC03FE01D9
:10247000329644C0FE01E20FF31F819391932250E4
:102480003109398328833AC02091BA033091BB03C4
:10249000232B41F420910201309103013093BB03BF
:1024A0002093BA03209100013091010121153105DB
:1024B00041F42DB73EB74091040150910501241B12
:1024C000350BE091BA03F091BB03E217F307A0F4D8
:1024D0002E1B3F0B2817390778F0AC014E5F5F4F7A
:1024E0002417350748F04E0F5F1F5093BB034093EE
:1024F000BA038193919302C0E0E0F0E0CF01DF9155
:10250000CF910895CF93DF93009709F487C0FC0122
:10251000329713821282C091BC03D091BD032097E1
:1025200081F420813181280F391F8091BA03909165
:10253000BB038217930779F5F093BB03E093BA03CB
:102540006DC0DE0120E030E0AE17BF0750F41296F8
:102550004D915C9113979D014115510509F1DA01E7
:10256000F3CFB383A28340815181840F951F8A17D3
:102570009B0771F48D919C911197840F951F029682
:102580009183808312968D919C911397938382837C
:102590002115310529F4F093BD03E093BC033EC03F
:1025A000D9011396FC93EE9312974D915D91A40F70
:1025B000B51FEA17FB0779F480819181840F951F7D
:1025C0000296D90111969C938E93828193811396E2
:1025D0009C938E931297E0E0F0E08A819B810097B4
:1025E00019F0FE01EC01F9CFCE0102962881398164
:1025F000820F931F2091BA033091BB03281739072C
:1026000069F4309729F41092BD031092BC0302C004
:1026100013821282D093BB03C093BA03DF91CF9190
:102620000895F999FECF92BD81BDF89A992780B59A
:102630000895262FF999FECF1FBA92BD81BD20BD06
:102640000FB6F894FA9AF99A0FBE01960895F89485
:02265000FFCFBA
:102652000000BE0380000201000102040506037FA0
:102662007F3F3F1FFF070000400014005400483A1C
:102672006900506F6E6564656C6E696B0056746FAD
:10268200726E696B005372656461004368657476AB
:1026920065726700507961746E6974736100537575
:1026A20062626F746100566F736B726573656E65FB
:1026B200005374616E6461727400437573746F6D5C
:1026C20000776141646848696D73794D44590061CE
:1026D2006D706D414D504D0053756E4D6F6E54755A
:1026E200655765645468754672695361744A616ED0
:1026F2004665624D61724170724D61794A756E4AEA
:10270200756C4175675365704F63744E6F7644659F
:1027120063000000000084019500C300AD00DA00F0
:10272200F1038B044804AE04EF00DE01F100F30074
:10273200F500F600F800FA00FC00EB012C010000A5
:102742000000940165013901000000002905FC0424
:10275200D104D904EC04FB0400000000E30B551083
:1027620000000000D70E5510590E720E640EB50E01
:107E0000112484B714BE81FFF0D085E080938100F7
:107E100082E08093C00088E18093C10086E0809377
:107E2000C20080E18093C4008EE0C9D0259A86E02C
:107E300020E33CEF91E0309385002093840096BBD3
:107E4000B09BFECF1D9AA8958150A9F7CC24DD24C4
:107E500088248394B5E0AB2EA1E19A2EF3E0BF2EE7
:107E6000A2D0813461F49FD0082FAFD0023811F036
:107E7000013811F484E001C083E08DD089C08234E0
:107E800011F484E103C0853419F485E0A6D080C0E4
:107E9000853579F488D0E82EFF2485D0082F10E0AE
:107EA000102F00270E291F29000F111F8ED06801E7
:107EB0006FC0863521F484E090D080E0DECF843638
:107EC00009F040C070D06FD0082F6DD080E0C81688
:107ED00080E7D80618F4F601B7BEE895C0E0D1E017
:107EE00062D089930C17E1F7F0E0CF16F0E7DF06D8
:107EF00018F0F601B7BEE89568D007B600FCFDCFD4
:107F0000A601A0E0B1E02C9130E011968C91119780
:107F100090E0982F8827822B932B1296FA010C0160
:107F200087BEE89511244E5F5F4FF1E0A038BF0790
:107F300051F7F601A7BEE89507B600FCFDCF97BE46
:107F4000E89526C08437B1F42ED02DD0F82E2BD052
:107F50003CD0F601EF2C8F010F5F1F4F84911BD097
:107F6000EA94F801C1F70894C11CD11CFA94CF0C13
:107F7000D11C0EC0853739F428D08EE10CD085E9AC
:107F80000AD08FE07ACF813511F488E018D01DD067
:107F900080E101D065CF982F8091C00085FFFCCF94
:107FA0009093C60008958091C00087FFFCCF809118
:107FB000C00084FD01C0A8958091C6000895E0E648
:107FC000F0E098E1908380830895EDDF803219F02E
:107FD00088E0F5DFFFCF84E1DECF1F93182FE3DFCA
:107FE0001150E9F7F2DF1F91089580E0E8DFEE27F6
:047FF000FF270994CA
:027FFE00040479
:0400000300007E007B
:00000001FF