:100000000C946B000C9493000C9493000C9493004C
:100010000C9493000C9493000C9493000C94930014
:100020000C9493000C9493000C9493000C94930004
:100030000C9493000C9493000C9493000C949300F4
:100040000C94840D0C9493000C948D100C94BF10A0
:100050000C9493000C9493000C9493000C949300D4
:100060000C9486070C9493001F030D0310031303D5
:10007000160319031C03000000080002010000031E
:100080000407000000000000000001020408102026
:10009000408001020408102001020408102004041A
:1000A0000404040404040202020202020303030320
:1000B00003030000000023002600290000000000C8
:1000C000250028002B0000000000240027002A0043
:1000D0005C04A406EF1011241FBECFEFD8E0DEBFF2
:1000E000CDBF12E0A0E0B1E0E8EDF7E202C005907C
:1000F0000D92AA33B107D9F723E0AAE3B2E001C019
:100100001D92A83DB207E1F710E0C6EDD0E004C0B3
:100110002297FE010E947B12C03DD107C9F70E94C1
:1001200033110C94EA130C9400000F93CF93DF93D8
:100130001F92CDB7DEB71982DC01ED91FC910284EC
:10014000F385E02D01E09E012F5F3F4F09958981E6
:100150000F90DF91CF910F910895CF93DF931F926E
:10016000CDB7DEB71982DC01ED91FC910684F785ED
:10017000E02D21E0AE014F5F5F4F099589810F901F
:10018000DF91CF9108950F93CF93DF931F92CDB757
:10019000DEB72983DC01ED91FC910484F585E02D27
:1001A00001E09E012F5F3F4F09950F90DF91CF91A6
:1001B0000F910895CF93DF931F92CDB7DEB7498398
:1001C000DC01ED91FC910088F189E02D21E0AE0188
:1001D0004F5F5F4F09950F90DF91CF91089584E0B5
:1001E000089580E0089580E00895089580E00895DE
:1001F00080E0089580E00895FC01A285B3858781A1
:100200009C9161110CC0982B9C93A289B3899C91FD
:100210008781809589238C9320E63AEE14C08095DF
:1002200089238C93A289B3898C919781892B8C9394
:10023000A685B785978120E63AEE8C91892319F43B
:100240002115310529F481E0232B29F480E008955C
:1002500021503109F2CF0895DC011C96ED91FC91FB
:100260001D97208116968C91282381E009F480E067
:100270000895EF92FF921F93CF93DF931F92CDB714
:10028000DEB77C01162FDC01ED91FC910280F38139
:10029000E02D49830995F70185A3E10FF11D968DA6
:1002A000292F209528234981242B892B282347890E
:1002B000D70156966C91C70102960F90DF91CF91AE
:1002C0001F91FF90EF900C94C3000F931F93CF9357
:1002D000DF93EC01162F61E070E080E090E00E9477
:1002E000FD0DCE01810F911D8C01FC0147896E89A6
:1002F000CE0102960E949500F801968D8923DF9128
:10030000CF911F910F910895A8EEB3E09A01AB0130
:100310000E947F12AB01BC018EE692E00E94610652
:100320008EE692E00C9457060F931F93CF93DF93C2
:10033000EC018C010E5F1F4F44E650E060E070E07E
:10034000C8010E94840142E06E89C8010E949500A4
:100350008DA386FF07C0282F2F7B42E06E89C8013E
:100360000E94C3004EE06E89C8010E9495008DA3D3
:10037000982F9F7D39F0282F20724EE06E89C8019A
:100380000E94C3004FE06E89C8010E9495008DA3B2
:10039000982F937811F483FD0CC0282F24772860C0
:1003A0004FE06E89C801DF91CF911F910F910C949E
:1003B000C300DF91CF911F910F9108958EE692E0D7
:1003C0000E9484068EE692E00E94A10691E08111CF
:1003D00090E0892F0895FC01A085B18586819C91CC
:1003E000611109C0982B9C93A089B1899C91868149
:1003F0008095892308C0809589238C93A089B18931
:100400008C919681892B8C930895EF92FF920F9394
:100410001F93CF93DF931F92CDB7DEB77C01FC0112
:1004200000811181C80169830E94D4136981681712
:1004300019F0C8010E94DC13C7010F90DF91CF9122
:100440001F910F91FF90EF90089580913B02809350
:100450003A0210925D0210925C0226E040E052ECFB
:1004600061E070E087E393E00E942B1080914502E9
:1004700090914602DC01ED91FC910190F081E02D1C
:10048000099564E771E08CE392E00E94250B60E03F
:100490008EE00E94B00E61E084E00E94B00E62E047
:1004A00088E00E94B00E62E08CE00E94B00E62E034
:1004B0008AE00E94B00E61E084E00E94E90E61E0F3
:1004C00088E00E94E90E61E08CE00E94E90E61E0A4
:1004D0008AE00E94E90E82E692E00E94820D82E6A6
:1004E00092E00C94880C8EE00E946A0E2AE0AC0127
:1004F000249FC001259F900D1124883E53E095074D
:1005000014F48AE090E008950E94730280319742CB
:10051000FCF40E94730220910A0130910B018217B2
:10052000930709F44AC00E94730290930B018093D1
:100530000A0141E06DE082E692E00E94E90C63E787
:1005400071E082E692E00E94821141E06EE010C00C
:100550000E947302883E9340DCF00E947302209157
:100560000A0130910B018217930739F141E06DE0E8
:1005700082E692E00E94E90C0E94730264E670E059
:100580000E9443124AE050E082E692E00C942E1260
:100590000E94730220910A0130910B018217930788
:1005A00061F041E06EE082E692E00E94E90C64E2D4
:1005B00071E082E692E00C948211089567E271E0A6
:1005C0008CE392E00E94250B2091080130910901F3
:1005D0002817390789F040E060E082E692E00E9447
:1005E000E90C67E271E08CE392E00E94250BBC010C
:1005F00082E692E00E94821140E066E082E692E0AC
:100600000E94E90C8091420290E087309105E8F465
:10061000FC01EC5CFF4F0C9479126BE271E011C0AD
:1006200066E371E00EC06EE371E00BC064E471E05C
:1006300008C06DE471E005C067E571E002C06FE5D8
:1006400071E082E692E00C9482110895CF93C82F56
:1006500041E060E082E692E00E94E90C2C2F30E05D
:10066000409106015091070124173507D1F13093CD
:10067000070120930601C13091F000F1C23089F5E5
:100680006AE671E082E692E00E94821141E060E059
:1006900082E692E00E94E90C6EE771E01DC06AE616
:1006A00071E082E692E00E94821141E060E082E621
:1006B00092E00E94E90C65E771E00EC06AE671E025
:1006C00082E692E00E94821141E060E082E692E0E0
:1006D0000E94E90C6FE571E082E692E0CF910C9404
:1006E0008211CF910895CF93C82F88E00E941F0FE9
:1006F000892B81F4C11107C0C0910C0164E670E040
:1007000080E090E005C0C15062E370E080E090E0DE
:100710000E94FD0D8AE00E941F0F892B99F48091A1
:100720000C01C81308C064E670E080E090E00E940D
:10073000FD0DC0E007C0CF5F64E670E080E090E0B0
:100740000E94FD0D8CE00E941F0F892B59F46C2F25
:1007500080E090E00E94DC1362E370E080E090E0D3
:100760000E94FD0D8C2F0E9426038C2FCF9108959F
:100770001F93CF93DF9300D0CDB7DEB780E090E03A
:100780000E94D41310913F02113009F07DC090E017
:100790004091420220910601309107014423C9F0A3
:1007A00028173907B1F01A82198261E0CE0101964B
:1007B0000E94050282E692E00E94DB0C10933A024E
:1007C00041E060E082E692E00E94E90C65E771E0BA
:1007D00019C02817390709F457C01A82198260E036
:1007E000CE0101960E94050210923A0282E692E042
:1007F0000E94DB0C41E060E082E692E00E94E90C9E
:100800006FE571E082E692E00E9482110E9473021D
:1008100080319742A4F40E94730290930B0180935D
:100820000A0141E06DE082E692E00E94E90C60E09E
:1008300082E692E00E94841141E06EE002C041E055
:100840006DE082E692E00E94E90C0E94730264E689
:1008500070E00E9443124AE050E082E692E00E947B
:100860002E1280913A02813031F040F0823061F4F2
:100870006EE771E005C065E771E002C06FE571E009
:1008800082E692E00E9482110F900F90DF91CF914B
:100890001F9108950E9484020E94DE0280913A0214
:1008A0000E94730380933A020E94B8036EE170E0E5
:1008B00080E090E00C94FD0DCF93DF9322E040E1C7
:1008C00067E282E692E00E945F0C10923C02109276
:1008D0003D0281E080933E0210923F02109240025E
:1008E000809341021092420280934302109244028C
:1008F00081E090E00E94AD129093480280934702FD
:1009000085E891E090934A028093490283E991E05F
:1009100090934C0280934B028CE991E090934E02AD
:1009200080934D021092560288EE93E0A0E0B0E072
:100930008093570290935802A0935902B0935A02A1
:1009400085E180935B0210925D0210925C0210922E
:100950005E0210925F02109260021092610286E2C3
:1009600090E00E944211EC018BE092E09983888331
:100970008FED91E09B838A838FEF8C838D8388E654
:100980008E8B87E0EEE0F1E0DE01579601900D924C
:100990008A95E1F787E0E5E1F1E0DE015E960190FE
:1009A0000D928A95E1F7D0934602C093450280E00C
:1009B00090E00E94D41380933B02DF91CF91089581
:1009C000CF92DF92EF92FF920F931F93CF93DF931B
:1009D0001F92CDB7DEB7F62E122FE32E8EE692E0F1
:1009E00049830E9484064981642F8EE692E00E942A
:1009F000180660E08EE692E00E948E06811123C008
:100A0000402F6F2D8EE692E00E9481068823D9F058
:100A1000F12EC12EDE2C1C2D1F198EE692E00E94B5
:100A2000C005892B11F0101780F08EE692E00E942D
:100A3000C005892B29F08EE692E00E94C805F5CF0B
:100A400081E0101751F080E008C08EE692E00E942D
:100A5000C805F60181936F01DECF0F90DF91CF9132
:100A60001F910F91FF90EF90DF90CF900895CF925C
:100A7000DF92FF920F931F93CF93DF931F92CDB717
:100A8000DEB7042F122F422F8EE692E059830E9488
:100A9000810659818823D9F0F02EC02ED52E0C2D39
:100AA0000F198EE692E00E94C005892B11F0011704
:100AB00080F08EE692E00E94C005892B29F08EE638
:100AC00092E00E94C805F5CF81E0011751F080E067
:100AD00008C08EE692E00E94C805F60181936F017E
:100AE000DECF0F90DF91CF911F910F91FF90DF909C
:100AF000CF9008950F931F93CF93DF93142FE901A5
:100B00008EE692E00E948406612F8EE692E00E94BB
:100B10001806402F50E0BE018EE692E00E94EB05E1
:100B20008EE692E00E94A10691E0811190E0892F6B
:100B3000DF91CF911F910F9108950F931F93CF9342
:100B4000DF931F92CDB7DEB78A018EE692E029834C
:100B50000E9484062981422F50E0B8018EE692E07F
:100B60000E94EB058EE692E00E94A10691E08111C1
:100B700090E0892F0F90DF91CF911F910F910895F1
:100B800080919E0290E020919F02821B910908951E
:100B900020919F0280919E02281750F4E22FF0E0EE
:100BA000E056FD4F808190E02F5F20939F020895D3
:100BB0008FEF9FEF0895E0919F0280919E02E817CA
:100BC00030F4F0E0E056FD4F808190E008958FEF23
:100BD0009FEF08950895CF92DF92EF92FF920F93C7
:100BE0001F93CF93DF937C01CB018A0120917A027E
:100BF000222389F0EB016B01C40ED51ECC15DD0557
:100C000069F06991D701ED91FC910190F081E02D9F
:100C1000C7010995F3CF642F0E945D07C801DF91DA
:100C2000CF911F910F91FF90EF90DF90CF9008959B
:100C3000CF93DF931F92CDB7DEB7698320917A02FD
:100C40002223D1F020917B02203240F021E030E0DD
:100C5000FC013383228380E090E015C080917C0208
:100C6000E82FF0E0E358FD4F998190838F5F8093E8
:100C70007C0280937B0205C061E0CE0101960E9458
:100C80005D0781E090E00F90DF91CF910895FC0126
:100C90001382128248EE53E060E070E04483558393
:100CA0006683778385E192E0918380830895109233
:100CB0009F0210929E0210927C0210927B020C9472
:100CC000A8069A01AB0160E074E284EF90E00E9414
:100CD00057122051310941095109569547953795C9
:100CE00027952093B8000895862F413208F040E2FE
:100CF00060EA72E00E94C60610929F0280939E02F4
:100D0000089521E00C94740681E080937A02609348
:100D10009D0210927C0210927B0208950F93062F81
:100D200021E040917B026DE772E080919D020E947C
:100D30000A0710927C0210927B0210927A020F91A5
:100D4000089561E00C948E068EE692E00C944706BE
:100D500010922D0381E080932B0310922A0361E00F
:100D600082E10E94E90E61E083E10E94E90EE9EB75
:100D7000F0E080818E7F808380818D7F808388E416
:100D80008093B80085E48093BC000895413208F058
:100D90003FC090912D039111FCCF91E090932D03D2
:100DA00020932B032FEF2093C00210920503240FF2
:100DB0002093040390932C0390912C03880F892B8C
:100DC00080932C0380912A03813041F410922A03EE
:100DD00080912C038093BB0085EC01C085EE80934D
:100DE000BC0080912D038130E1F3809105038417CD
:100DF00010F44091050326E033E0FB01D9018A2F6E
:100E0000821B841718F48D918193F9CF842F089554
:100E100080E008950F93413208F046C090912D0371
:100E20009111FCCF92E090932D0300932B039FEF41
:100E30009093C0021092050340930403FB0166E007
:100E400073E0DB019A2F961B941718F491919D93F0
:100E5000F9CF10922C0390912C03880F892B80934B
:100E60002C0380912A03813041F410922A0380914F
:100E70002C038093BB0085EC01C085EE8093BC0001
:100E8000222321F080912D038230E1F38091C00272
:100E90008F3F61F08091C002803251F08091C0029A
:100EA000803341F483E007C081E005C080E003C0E7
:100EB00082E001C084E00F910895613298F420919E
:100EC0002D03243089F46093E202FC0184EE92E069
:100ED000DC012A2F281B261718F421912D93F9CF16
:100EE00080E0089581E0089582E0089585ED809383
:100EF000BC008091BC0084FDFCCF10922D030895AE
:100F000085EC8093BC0010922D0308951F920F92E0
:100F10000FB60F9211242F933F934F935F936F93CC
:100F20007F938F939F93AF93BF93EF93FF938091A2
:100F3000B900887F803609F49CC068F5883209F4CE
:100F40005BC090F4803109F454C038F4882309F46C
:100F5000F5C0883009F44DC0F5C0883109F44CC0A3
:100F6000803209F45DC0EEC0803409F468C048F4F2
:100F7000803309F455C0883309F0E4C08093C0027F
:100F8000A8C0803509F44FC0883509F45DC08834A5
:100F900009F0D8C0D5C0883909F4C6C0A8F488378C
:100FA00009F467C038F4883609F463C0803709F45F
:100FB00060C0C8C0883809F4B7C0803909F45FC080
:100FC000803809F0BFC05BC0803B09F485C038F4AD
:100FD000803A09F466C0883A09F47EC0B3C0803C08
:100FE00009F4A6C0883C09F4A3C0883B09F489C071
:100FF000A9C080912C0310C0909105038091040337
:10100000981770F5E091050381E08E0F809305033A
:10101000F0E0EA5FFC4F80818093BB0085EC85C0E7
:101020008093C0028DC0E091050381E08E0F809314
:1010300005038091BB00F0E0EA5FFC4F8083909154
:101040000503809104036DC0E091050381E08E0FDC
:10105000809305038091BB00F0E0EA5FFC4F808342
:1010600080912B0381116CC081E080932A0384EA74
:1010700060C083E080932D031092C102CFCF809196
:10108000C102803208F050C0E091C10281E08E0FB1
:101090008093C1028091BB00F0E0EE53FD4F80834E
:1010A000BDCF8091C102803230F4E091C102F0E006
:1010B000EE53FD4F10820E9476076091C10270E0EE
:1010C000E0912603F091270382EC92E009951092BB
:1010D000C1020E94800736C084E080932D031092E5
:1010E000E3021092E202E0912803F09129030995AE
:1010F0008091E202811105C081E08093E2021092AA
:10110000E402E091E30281E08E0F8093E302F0E0DD
:10111000EC51FD4F80818093BB009091E302809160
:10112000E202981708F47ACF85E88093BC000AC0E1
:1011300085EC8093BC0010922D0304C01092C00275
:101140000E947607FF91EF91BF91AF919F918F9190
:101150007F916F915F914F913F912F910F900FBEB3
:101160000F901F9018959F92AF92BF92CF92DF92EF
:10117000EF92FF920F931F93CF93DF93EC01A62E74
:10118000142FB22E9A8C0E94CE0DCB8CDC8CED8C61
:10119000FE8CA70196010E945712F694E794D7940B
:1011A000C7946C157D058E059F0510F041E09012E7
:1011B00040E01230B9F128F4112351F01130A1F0C0
:1011C000D7C0133009F450C0143009F484C0D0C023
:1011D000EB85FC85EB0DF11D41117AC08A2D87301E
:1011E00008F086E0805D75C05A2D543608F053E64D
:1011F0002B2D30E0EB85FC85E20FF31F411106C07B
:10120000852F6AE00E943712805D01C080E28083F2
:101210002F5F3F4FEB85FC85E20FF31F4111A6C006
:10122000852F9FC02A2D273008F026E08B2D90E0D7
:10123000EB85FC85E80FF91F411106C0AF85B88921
:10124000A20FB11D3C9101C030E230830196EB85C5
:10125000FC85E80FF91F41113BC0AF85B889A20F8B
:10126000B11D11968C9135C05A2D573308F056E3B5
:101270008B2D90E0EB85FC85E80FF91F411106C02E
:10128000A989BA89A50FB11D2C9101C020E2208344
:10129000EB85FC859C012F5F3F4FE20FF31F41114F
:1012A00007C0A989BA89A50FB11D11962C9101C05B
:1012B00020E220830296EB85FC85E80FF91F41119F
:1012C00007C0A989BA89A50FB11D12968C9101C0DA
:1012D00080E280834DC01A2D143608F013E62B2DC2
:1012E00030E0EB85FC85E20FF31F41110AC06F8DE2
:1012F000862F90E001976AE070E00E944312605DE3
:1013000001C060E26083EB85FC85C9010196E80FAE
:10131000F91F41110AC06F8D862F90E001976AE096
:1013200070E00E944312805D01C080E28083EB8503
:10133000FC85B9016E5F7F4FE60FF71F411106C0B4
:10134000812F6AE00E943712805D01C080E28083B5
:101350002D5F3F4FEB85FC85E20FF31F411106C067
:10136000812F6AE00E943712905D01C090E2908365
:10137000DF91CF911F910F91FF90EF90DF90CF9071
:10138000BF90AF909F900895CF93DF93EC01898534
:101390009A85DC01ED91FC910280F381E02D60E003
:1013A0000995282F2695269526952E71922F990F0F
:1013B000990F920F8F70980F9B8B988389859A85D0
:1013C000DC01ED91FC910280F381E02D61E0099553
:1013D000282F2695269526952E71922F990F990FD5
:1013E000920F8F70980F9C8B998389859A85DC0169
:1013F000ED91FC910280F381E02D62E00995282FA8
:101400002695269526952E71922F990F990F920F5A
:101410008F70980F9D8B9B8389859A85DC01ED9158
:10142000FC910280F381E02D63E00995282F269539
:10143000269526952E71922F990F990F920F8F70E6
:10144000980F9E8B9D8389859A85DC01ED91FC9197
:101450000280F381E02D64E00995282F26952695DA
:1014600026952E71922F990F990F920F8F70980FCA
:101470009F8B9F8389859A85DC01ED91FC91028089
:10148000F381E02D65E00995282F26952695269570
:101490002E71922F990F990F920F8F70980F988F2E
:1014A000988789859A85DC01ED91FC910280F38112
:1014B000E02D66E00995982F9F709150869586954E
:1014C00086958E71282F220F220F280F920F998F49
:1014D0009E830E94CE0D6AA37BA38CA39DA3DF9164
:1014E000CF9108956F927F928F929F92BF92CF92E9
:1014F000DF92EF92FF920F931F93CF93DF93EC0154
:101500000E94CE0D0AA11BA12CA13DA1601B710B55
:10151000820B930B28EE33E040E050E00E9457121C
:101520000F89188D023081F0602F70E081E090E02B
:10153000083010F480E090E0860F971F81709927A3
:10154000EEE1BE2EB80E0BC0812F90E0837099277C
:10155000892B19F47DE1B72E02C06CE1B62E8B8980
:1015600039014A01680E711C811C911CC401B30130
:101570003CE3C32ED12CE12CF12CA70196010E9453
:10158000571268838C8939014A01680E711C811CCD
:10159000911CC401B301A70196010E9457126983EF
:1015A0008D8969017A01C80ED11CE11CF11CC701AB
:1015B000B60128E130E040E050E00E9457126B8312
:1015C000898D820F873010F48E8301C01E828E8930
:1015D00039014A01680E711C811C911CC401B301C0
:1015E0002B2D30E02F5F3F4F442737FD4095542F80
:1015F0000E945712620F6D83CA01B901600F711DFD
:10160000811D911D2DE030E040E050E00E94571216
:10161000620F6F83CA01B901610F711D811D911D98
:1016200024E630E040E050E00E9457126887DF91E6
:10163000CF911F910F91FF90EF90DF90CF90BF90CF
:101640009F908F907F906F9008958F929F92AF920E
:10165000BF92EF92FF920F931F93CF93DF93EC0112
:101660007B018AA09BA0ACA0BDA00E94CE0D6815F6
:1016700079058A059B0520F41AA21BA21CA21DA2B3
:1016800088A199A1009721F4CE010E94C40919C034
:101690004AA15BA16CA17DA14115510561057105B0
:1016A00099F34A015B01880E991EA11CB11C0E948E
:1016B000CE0D681579058A059B0530F7CE010E948D
:1016C000720A2B81822F6CE00E943712911101C0A7
:1016D0009CE09A8381E02C3008F480E08C83F70151
:1016E00001900020E9F73197EE19FF0911E01E0F74
:1016F00090E0492F50E04E175F0758F52D853E8545
:10170000D9010D900020E9F7BD01615071094B012D
:10171000821A930A80E04E0D5F1D682F70E06815F5
:101720007905A8F4620F731FDA01BC90DB016C919C
:10173000B6120BC0882349F08A3010F41F5F05C031
:101740008C3010F41E5F01C01D5F8F5FE6CF9F5F7E
:10175000D0CF8B859C850E944513812F90E00E94FD
:10176000AD129C878B8710E0B12C8B2D90E0F70198
:1017700001900020E9F73197EE19FF098E179F07B6
:1017800008F08BC0F701E80FF91F8081ED85FE8519
:101790009081891308C007E0212F40E06E81CE01BF
:1017A0000E94B30877C09181891303C06C81660FD2
:1017B00006C0928189130BC06C81660F6C5F08E0D4
:1017C000212F42E0CE010E94B3081E5F64C09381C6
:1017D000891305C004E0212F41E06D81F3CF94818E
:1017E000891305C003E0212F41E06A81EBCF958189
:1017F000891305C003E0212F41E06B81E3CF96817F
:10180000891305C002E0212F41E06981DBCF978178
:10181000891305C005E0212F41E06F81D3CF90856A
:10182000891305C001E0212F41E06881CBCF91856C
:10183000891305C006E0212F41E06885C3CF92855A
:10184000891308C08F8190E00696682F660F680F95
:1018500005E008C0938589130CC08E81682F660F40
:10186000680F07E0212F43E0CE010E94B3081D5FFF
:1018700012C09485891309C006E0212F44E06885D1
:10188000CE010E94B3081C5F06C0EB85FC85E10F0A
:10189000F11D80831F5FB39468CFEB85FC85E10F5A
:1018A000F11D10828B859C85DF91CF911F910F9147
:1018B000FF90EF90BF90AF909F908F900895FC01A4
:1018C0001382128285E292E0918380836483418750
:1018D0002287138608951F93CF93DF93EC01162F71
:1018E0006C818EE692E00E948406E0916E02F09197
:1018F0006F026B85612B0190F081E02D8EE692E006
:1019000009958EE692E0DF91CF911F910C94A1068C
:1019100028E0FC01238760E00C946B0C1F93CF93AD
:10192000DF93EC01162F64600E946B0C81E090E065
:101930000E94250E612F6B7FCE010E946B0C82E30B
:1019400090E0DF91CF911F910C94250E1F93CF93C0
:10195000DF93EC01162F0E946B0C612FCE01DF91FB
:10196000CF911F910C948E0CEF92FF921F93CF9307
:10197000DF931F92CDB7DEB77C01162F607F642BFB
:1019800049830E94A60C80E1189FB001112449816F
:10199000642BC7010F90DF91CF911F91FF90EF90C3
:1019A0000C94A60C41E00E94B40C81E090E00895F4
:1019B00040E00C94B40C61E00E94D80C80ED97E0FC
:1019C0000C94250E62E00E94D80C80ED97E00C94F8
:1019D000250ECF93DF93CDB7DEB728970FB6F894D7
:1019E000DEBF0FBECDBF28E0ECE1F1E0DE011196D5
:1019F00001900D922A95E1F7FC012085241710F43F
:101A00004FEF420FFE013196E40FF11DE40FF11D7F
:101A10002081260F2068622F28960FB6F894DEBF2B
:101A20000FBECDBFDF91CF910C94D80CFC01668125
:101A3000262F246026836C600C94D80CCF93DF9300
:101A4000EC01423018F08D8188608D834887222315
:101A500029F0413019F48D8184608D8362E370E058
:101A600080E090E00E94FD0D6B85CE010E946B0C22
:101A700068EE73E080E090E00E94FD0D60E3CE012F
:101A80000E94A60C84E991E10E94250E60E3CE013C
:101A90000E94A60C84E991E10E94250E60E3CE012C
:101AA0000E94A60C86E990E00E94250E60E2CE011D
:101AB0000E94A60C6D816062CE010E94D80C84E069
:101AC0008E83CE010E94160DCE010E94DB0C82E0B7
:101AD0008F8366E0CE010E94D80CCE01DF91CF91BA
:101AE0000C94E20CCF93DF93EC018EE692E00E941F
:101AF00057061D8220E04A856985CE01DF91CF918E
:101B00000C941E0D0C94720D1F920F920FB60F9233
:101B100011242F933F938F939F93AF93BF93809103
:101B20002F0390913003A0913103B0913203309193
:101B30002E0323E0230F2D3720F40196A11DB11DA4
:101B400005C026E8230F0296A11DB11D20932E0388
:101B500080932F0390933003A0933103B09332030B
:101B60008091330390913403A0913503B0913603F3
:101B70000196A11DB11D8093330390933403A0936C
:101B80003503B0933603BF91AF919F918F913F91F1
:101B90002F910F900FBE0F901F9018952FB7F894AC
:101BA00060912F0370913003809131039091320343
:101BB0002FBF08953FB7F894809133039091340379
:101BC000A0913503B091360326B5A89B05C02F3FE1
:101BD00019F00196A11DB11D3FBF6627782F892FEF
:101BE0009A2F620F711D811D911D42E0660F771FB4
:101BF000881F991F4A95D1F70895CF92DF92EF92EF
:101C0000FF92CF93DF936B017C010E94DA0DEB0111
:101C1000C114D104E104F10489F00E9436120E943B
:101C2000DA0D6C1B7D0B683E734090F381E0C81A9F
:101C3000D108E108F108C851DC4FEACFDF91CF911C
:101C4000FF90EF90DF90CF900895019739F0880FC3
:101C5000991F880F991F02970197F1F708957894BB
:101C600084B5826084BD84B5816084BD85B58260A1
:101C700085BD85B5816085BDEEE6F0E0808181603F
:101C80008083E1E8F0E0108280818260808380813F
:101C900081608083E0E8F0E0808181608083E1EB17
:101CA000F0E0808184608083E0EBF0E080818160FF
:101CB0008083EAE7F0E080818460808380818260B5
:101CC000808380818160808380818068808310929E
:101CD000C10008958E3008F08E50877020910D015C
:101CE00090E4299F90011124822B80937C008091A5
:101CF0007A00806480937A0080917A0086FDFCCF20
:101D0000809178002091790090E0922B08958330A3
:101D100081F028F4813099F08230A1F00895873065
:101D2000A9F08830B9F08430D1F4809180008F7DA3
:101D300003C0809180008F7780938000089584B5E0
:101D40008F7702C084B58F7D84BD08958091B000E7
:101D50008F7703C08091B0008F7D8093B00008958D
:101D6000CF93DF9390E0FC01E657FF4F2491FC01F5
:101D7000E256FF4F8491882349F190E0880F991F24
:101D8000FC01EA53FF4FA591B49184549F4FFC018D
:101D9000C591D4919FB7611108C0F8948C9120959A
:101DA00082238C93888182230AC0623051F4F89494
:101DB0008C91322F309583238C938881822B88835A
:101DC00004C0F8948C91822B8C939FBFDF91CF91AC
:101DD00008950F931F93CF93DF931F92CDB7DEB774
:101DE000282F30E0F901EA58FF4F8491F901E657B6
:101DF000FF4F1491F901E256FF4F04910023C9F0FF
:101E0000882321F069830E94870E6981E02FF0E02A
:101E1000EE0FFF1FE454FF4FA591B4919FB7F894C4
:101E20008C91611103C01095812301C0812B8C938B
:101E30009FBF0F90DF91CF911F910F910895CF9386
:101E4000DF93282F30E0F901EA58FF4F8491F90120
:101E5000E657FF4FD491F901E256FF4FC491CC23CE
:101E600091F081110E94870EEC2FF0E0EE0FFF1F22
:101E7000EE54FF4FA591B4912C912D2381E090E079
:101E800021F480E002C080E090E0DF91CF910895DE
:101E9000FC01818D228D90E0805C9F4F821B910917
:101EA0008F7399270895FC01918D828D981731F0D9
:101EB000828DE80FF11D858D90E008958FEF9FEFE3
:101EC0000895FC01918D828D981761F0828DDF015C
:101ED000A80FB11D5D968C91928D9F5F9F73928F1D
:101EE00090E008958FEF9FEF089585EE90E1892BA4
:101EF00049F080E090E0892B29F00E94E5108111E3
:101F00000C9400000895FC01848DDF01A80FB11D21
:101F1000A35ABF4F2C91848D90E001968F7399271F
:101F2000848FA689B7892C93A089B1898C9180640C
:101F30008C93938D848D981306C00288F389E02DCD
:101F400080818F7D80830895CF93DF93EC01888D0E
:101F50008823C9F0EA89FB89808185FD05C0A889AD
:101F6000B9898C9186FD0FC00FB607FCF5CF808133
:101F700085FFF2CFA889B9898C9185FFEDCFCE017D
:101F80000E94830FE7CFDF91CF910895CF92DF9228
:101F9000FF920F931F93CF93DF931F92CDB7DEB7BE
:101FA0006C01DC015B969C915B975C968C915C97D5
:101FB000981307C05096ED91FC915197808185FD53
:101FC00032C0F601038D10E00F5F1F4F0F73112712
:101FD000F02EF601848DF81211C00FB607FCF9CF70
:101FE000D6015096ED91FC915197808185FFF1CFFC
:101FF000C60169830E94830F6981EBCF838DE80F4F
:10200000F11DE35AFF4F6083D6015B960C935B97FB
:102010005296ED91FC91539780818062808381E09C
:1020200058968C930DC0D6015696ED91FC9157971A
:1020300060835096ED91FC915197808180648083FC
:1020400081E090E00F90DF91CF911F910F91FF9071
:10205000DF90CF900895BF92CF92DF92EF92FF92E0
:10206000CF93DF93EC016A017B01B22EE889F989F5
:1020700082E08083411581EE580761057105A1F06A
:1020800060E079E08DE390E0A70196010E9457128D
:1020900021503109410951095695479537952795A2
:1020A000211580E1380798F0E889F989108260E805
:1020B00074E88EE190E0A70196010E94571221502A
:1020C0003109410951095695479537952795EC8572
:1020D000FD853083EE85FF852083188EEC89FD8990
:1020E000B082EA89FB89808180618083EA89FB89EB
:1020F000808188608083EA89FB8980818068808311
:10210000EA89FB8980818F7D8083DF91CF91FF9069
:10211000EF90DF90CF90BF9008951F920F920FB66F
:102120000F9211242F938F939F93EF93FF93E0913E
:102130004703F09148038081E0914D03F0914E03F5
:1021400082FD12C09081809150038F5F8F73209128
:102150005103821751F0E0915003F0E0E95CFC4F2D
:10216000958F8093500301C08081FF91EF919F91E3
:102170008F912F910F900FBE0F901F9018951F9267
:102180000F920FB60F9211242F933F934F935F93AB
:102190006F937F938F939F93AF93BF93EF93FF932F
:1021A00087E393E00E94830FFF91EF91BF91AF917E
:1021B0009F918F917F916F915F914F913F912F915F
:1021C0000F900FBE0F901F90189587E393E00E9429
:1021D000480F21E0892B09F420E0822F0895109206
:1021E0003A031092390388EE93E0A0E0B0E08093C8
:1021F0003B0390933C03A0933D03B0933E038DE2D9
:1022000092E0909338038093370385EC90E09093AD
:1022100044038093430384EC90E0909346038093BF
:10222000450380EC90E0909348038093470381EC52
:1022300090E090934A038093490382EC90E090935E
:102240004C0380934B0386EC90E090934E03809375
:102250004D031092500310925103109252031092AA
:102260005303089508950E942F0E0E9432110E9478
:102270002502C5E7DFE00E944A042097E1F30E94AF
:10228000750FF9CF0C94AD12CF92DF92EF92FF92BF
:102290000F931F93CF93DF936C017A01EB01E60E4E
:1022A000F71E00E010E0CE15DF0561F06991D60160
:1022B000ED91FC910190F081E02DC6010995080F88
:1022C000191FF1CFC801DF91CF911F910F91FF909E
:1022D000EF90DF90CF9008956115710581F0DB01DB
:1022E0000D900020E9F7AD0141505109461B570BF5
:1022F000DC01ED91FC910280F381E02D099480E0F6
:1023000090E008950C946C11DC01ED91FC9101902A
:10231000F081E02D09948F929F92AF92BF92CF925D
:10232000DF92EF92FF920F931F93CF93DF93CDB77E
:10233000DEB7A1970FB6F894DEBF0FBECDBF7C010C
:10234000C42EE52FCB01D22E19A221E02D1510F0BD
:102350002AE0D22E8E010F5D1F4F8D2C912CA12CC7
:10236000B12C6C2D7E2FA50194010E9457128C2D4B
:10237000D29E80191124015011098A3014F4805D15
:1023800001C0895CF80180832115310541055105A3
:1023900021F0C22EE32FCA01E4CFB801C7010E9489
:1023A0006C11A1960FB6F894DEBF0FBECDBFDF91C2
:1023B000CF911F910F91FF90EF90DF90CF90BF9042
:1023C000AF909F908F900895CF92DF92EF92FF92FF
:1023D0000F931F93CF93DF93EC016A017B012115CB
:1023E000310579F4E881F9810190F081E02D642FC5
:1023F000DF91CF911F910F91FF90EF90DF90CF90E1
:1024000009942A303105E9F477FF1AC06DE20E9481
:1024100084118C0144275527BA014C195D096E09B6
:102420007F092AE0CE010E948B11800F911FDF915E
:10243000CF911F910F91FF90EF90DF90CF90089573
:102440002AE0B701A601CE01DF91CF911F910F9134
:10245000FF90EF90DF90CF900C948B119A01AB011D
:10246000662757FD6095762F0C94E4110895991B0B
:1024700079E004C0991F961708F0961B881F7A957B
:10248000C9F78095089597FB072E16F4009407D09E
:1024900077FD09D00E948A1207FC05D03EF4909582
:1024A00081959F4F0895709561957F4F0895A1E2A2
:1024B0001A2EAA1BBB1BFD010DC0AA1FBB1FEE1FBE
:1024C000FF1FA217B307E407F50720F0A21BB30B09
:1024D000E40BF50B661F771F881F991F1A9469F785
:1024E00060957095809590959B01AC01BD01CF01E1
:1024F0000895EE0FFF1F0590F491E02D09940E94BE
:102500009E12A59F900DB49F900DA49F800D911DCC
:1025100011240895AA1BBB1B51E107C0AA1FBB1FB2
:10252000A617B70710F0A61BB70B881F991F5A955F
:10253000A9F780959095BC01CD010895A29FB001A7
:10254000B39FC001A39F700D811D1124911DB29FE7
:10255000700D811D1124911D0895CF93DF9382305A
:10256000910510F482E090E0E091D603F091D7035A
:1025700020E030E0A0E0B0E0309739F140815181B7
:1025800048175907B8F04817590771F482819381A9
:10259000109729F013969C938E9312972CC09093CA
:1025A000D7038093D60327C02115310531F0421798
:1025B000530718F0A901DB0101C0EF019A01BD0129
:1025C000DF010280F381E02DD7CF21153105F9F02D
:1025D000281B390B2430310580F48A819B816115D9
:1025E000710521F0FB019383828304C09093D7038C
:1025F0008093D603FE01329644C0FE01E20FF31F22
:102600008193919322503109398328833AC02091D4
:10261000D4033091D503232B41F420910201309152
:1026200003013093D5032093D4032091000130910E
:1026300001012115310541F42DB73EB74091040148
:1026400050910501241B350BE091D403F091D50383
:10265000E217F307A0F42E1B3F0B2817390778F079
:10266000AC014E5F5F4F2417350748F04E0F5F1FD8
:102670005093D5034093D4038193919302C0E0E03B
:10268000F0E0CF01DF91CF910895CF93DF930097D2
:1026900009F487C0FC01329713821282C091D603DD
:1026A000D091D703209781F420813181280F391FE1
:1026B0008091D4039091D5038217930779F5F09315
:1026C000D503E093D4036DC0DE0120E030E0AE1707
:1026D000BF0750F412964D915C9113979D014115DF
:1026E000510509F1DA01F3CFB383A283408151810F
:1026F000840F951F8A179B0771F48D919C911197F8
:10270000840F951F02969183808312968D919C91E0
:102710001397938382832115310529F4F093D7030E
:10272000E093D6033EC0D9011396FC93EE93129723
:102730004D915D91A40FB51FEA17FB0779F48081D5
:102740009181840F951F0296D90111969C938E93C7
:102750008281938113969C938E931297E0E0F0E030
:102760008A819B81009719F0FE01EC01F9CFCE011F
:10277000029628813981820F931F2091D4033091D2
:10278000D5032817390769F4309729F41092D70335
:102790001092D60302C013821282D093D503C09345
:1027A000D403DF91CF910895F999FECF92BD81BDF9
:1027B000F89A992780B50895262FF999FECF1FBA68
:1027C00092BD81BD20BD0FB6F894FA9AF99A0FBE5A
:0827D00001960895F894FFCF73
:1027D8000000D8038000F6FFD601F6FF02010001D1
:1027E80002040506037F7F3F3F1FFF0700004000EC
:1027F80014005400313000483A6900506F6E656427
:10280800656C6E696B0056746F726E696B005372FB
:102818006564610043686574766572670050796124
:10282800746E6974736100537562626F74610056E7
:102838006F736B726573656E650020202020202001
:1028480020202020005374616E6461727400437507
:1028580073746F6D00776141646848696D73794D71
:10286800445900616D706D414D504D0053756E4D6A
:102878006F6E54756557656454687546726953611F
:10288800744A616E4665624D61724170724D61793C
:102898004A756E4A756C4175675365704F63744E1F
:1028A8006F76446563006A6867670000000000840B
:1028B800019500C300AD00DA00E0047A0537059DF4
:1028C80005EF00DE01F100F300F500F600F800FA6C
:1028D80000FC00EB012C01000000009401650139A7
:1028E80001000000001806EB05C005C805DB05EA75
:1028F8000500000000D20C441100000000C60F447F
:0A29080011480F610F530FA40F00D8
:00000001FF
