:100000000C946B000C9493000C9493000C9493004C
:100010000C9493000C9493000C9493000C94930014
:100020000C9493000C9493000C9493000C94930004
:100030000C9493000C9493000C9493000C949300F4
:100040000C94A00D0C9493000C94A9100C94DB104C
:100050000C9493000C9493000C9493000C949300D4
:100060000C94A2070C9493001F030D0310031303B9
:10007000160319031C03000000080002010000031E
:100080000407000000000000000001020408102026
:10009000408001020408102001020408102004041A
:1000A0000404040404040202020202020303030320
:1000B00003030000000023002600290000000000C8
:1000C000250028002B0000000000240027002A0043
:1000D0007804C0060B1111241FBECFEFD8E0DEBF9D
:1000E000CDBF12E0A0E0B1E0E0E1F8E202C005908F
:1000F0000D92AC33B107D9F723E0ACE3B2E001C015
:100100001D92AA3DB207E1F710E0C6EDD0E004C0B1
:100110002297FE010E949712C03DD107C9F70E94A5
:100120004F110C9406140C9400000F93CF93DF939F
:100130001F92CDB7DEB71982DC01ED91FC910284EC
:10014000F385E02D01E09E012F5F3F4F09958981E6
:100150000F90DF91CF910F910895CF93DF931F926E
:10016000CDB7DEB71982DC01ED91FC910684F785ED
:10017000E02D21E0AE014F5F5F4F099589810F901F
:10018000DF91CF9108950F93CF93DF931F92CDB757
:10019000DEB72983DC01ED91FC910484F585E02D27
:1001A00001E09E012F5F3F4F09950F90DF91CF91A6
:1001B0000F910895CF93DF931F92CDB7DEB7498398
:1001C000DC01ED91FC910088F189E02D21E0AE0188
:1001D0004F5F5F4F09950F90DF91CF91089584E0B5
:1001E000089580E0089580E00895089580E00895DE
:1001F00080E0089580E00895FC01A285B3858781A1
:100200009C9161110CC0982B9C93A289B3899C91FD
:100210008781809589238C9320E63AEE14C08095DF
:1002200089238C93A289B3898C919781892B8C9394
:10023000A685B785978120E63AEE8C91892319F43B
:100240002115310529F481E0232B29F480E008955C
:1002500021503109F2CF0895DC011C96ED91FC91FB
:100260001D97208116968C91282381E009F480E067
:100270000895EF92FF921F93CF93DF931F92CDB714
:10028000DEB77C01162FDC01ED91FC910280F38139
:10029000E02D49830995F70185A3E10FF11D968DA6
:1002A000292F209528234981242B892B282347890E
:1002B000D70156966C91C70102960F90DF91CF91AE
:1002C0001F91FF90EF900C94C3000F931F93CF9357
:1002D000DF93EC01162F61E070E080E090E00E9477
:1002E000190ECE01810F911D8C01FC0147896E8989
:1002F000CE0102960E949500F801968D8923DF9128
:10030000CF911F910F910895A8EEB3E09A01AB0130
:100310000E949B12AB01BC0180E792E00E947D0627
:1003200080E792E00C9473060F931F93CF93DF93B3
:10033000EC018C010E5F1F4F44E650E060E070E07E
:10034000C8010E94840142E06E89C8010E949500A4
:100350008DA386FF07C0282F2F7B42E06E89C8013E
:100360000E94C3004EE06E89C8010E9495008DA3D3
:10037000982F9F7D39F0282F20724EE06E89C8019A
:100380000E94C3004FE06E89C8010E9495008DA3B2
:10039000982F937811F483FD0CC0282F24772860C0
:1003A0004FE06E89C801DF91CF911F910F910C949E
:1003B000C300DF91CF911F910F91089580E792E0E4
:1003C0000E94A00680E792E00E94BD0691E08111A4
:1003D00090E0892F0895FC01A085B18586819C91CC
:1003E000611109C0982B9C93A089B1899C91868149
:1003F0008095892308C0809589238C93A089B18931
:100400008C919681892B8C930895EF92FF920F9394
:100410001F93CF93DF931F92CDB7DEB77C01FC0112
:1004200000811181C80169830E94F01369816817F6
:1004300019F0C8010E94F813C7010F90DF91CF9106
:100440001F910F91FF90EF90089580913D0280934E
:100450003C0210925F0210925E0226E040E052ECF5
:1004600061E070E089E393E00E94471080914702C9
:1004700090914802DC01ED91FC910190F081E02D1A
:10048000099564E771E08EE392E00E94410B60E021
:100490008EE00E94CC0E61E084E00E94CC0E62E00F
:1004A00088E00E94CC0E62E08CE00E94CC0E62E0FC
:1004B0008AE00E94CC0E61E084E00E94050F61E0BA
:1004C00088E00E94050F61E08CE00E94050F61E06A
:1004D0008AE00E94050F84E692E00E949E0D84E669
:1004E00092E00C94A40C8EE00E94860E2AE0AC01EF
:1004F000249FC001259F900D1124883E53E095074D
:1005000014F48AE090E008950E94730280319742CB
:10051000FCF40E94730220910A0130910B018217B2
:10052000930709F44AC00E94730290930B018093D1
:100530000A0141E06DE084E692E00E94050D63E768
:1005400071E084E692E00E949E1141E06EE010C0EE
:100550000E947302883E9340DCF00E947302209157
:100560000A0130910B018217930739F141E06DE0E8
:1005700084E692E00E94050D0E94730264E670E03A
:100580000E945F124AE050E084E692E00C944A1226
:100590000E94730220910A0130910B018217930788
:1005A00061F041E06EE084E692E00E94050D64E2B5
:1005B00071E084E692E00C949E11089567E271E088
:1005C0008EE392E00E94410B2091080130910901D5
:1005D0002817390789F040E060E084E692E00E9445
:1005E000050D67E271E08EE392E00E94410BBC01D1
:1005F00084E692E00E949E1140E066E084E692E08C
:100600000E94050D8091440290E087309105E8F446
:10061000FC01EC5CFF4F0C9495126BE271E011C091
:1006200066E371E00EC06EE371E00BC064E471E05C
:1006300008C06DE471E005C067E571E002C06FE5D8
:1006400071E084E692E00C949E110895CF93C82F38
:1006500041E060E084E692E00E94050D2C2F30E03E
:10066000409106015091070124173507C9F13093D5
:10067000070120930601C13091F000F1C23081F5ED
:100680006AE671E084E692E00E949E1141E060E03B
:1006900084E692E00E94050D6EE771E01DC06AE6F7
:1006A00071E084E692E00E949E1141E060E084E601
:1006B00092E00E94050D65E771E00EC06AE671E008
:1006C00084E692E00E949E1141E060E084E692E0C0
:1006D0000E94050D67E571E084E692E00E949E119C
:1006E00080E090E00E94F01341E06AE08C1739F05E
:1006F00084E692E00E94050D65E871E006C084E69C
:1007000092E00E94050D63E771E084E692E0CF91EC
:100710000C949E11CF93C82F88E00E943B0F892B29
:1007200081F4C11107C0C0910C0164E670E080E063
:1007300090E005C0C15062E370E080E090E00E946C
:10074000190E8AE00E943B0F892B99F480910C01CD
:10075000C81308C064E670E080E090E00E94190EC3
:10076000C0E007C0CF5F64E670E080E090E00E94E8
:10077000190E8CE00E943B0F892B59F46C2F80E0FE
:1007800090E00E94F81362E370E080E090E00E9445
:10079000190E8C2F0E9426038C2FCF910895CF9392
:1007A000DF9300D0CDB7DEB780E090E00E94F01379
:1007B00090914102913009F084C090E04091440250
:1007C0002091060130910701442399F12817390738
:1007D00081F11A82198261E0CE0101960E94050220
:1007E00084E692E00E94F70C41E060E084E692E04B
:1007F0000E94050D65E771E084E692E00E949E117B
:100800000E947302803197420CF049C00E9473022B
:1008100090930B0180930A0141E06DE084E692E041
:100820000E94050D63E771E084E692E00E949E114C
:1008300033C02817390709F444C01A82198260E0CE
:10084000CE0101960E94050210923C0284E692E0DD
:100850000E94F70C41E060E084E692E00E94050D02
:1008600067E571E084E692E00E949E110E947302A7
:1008700080319742A4F40E94730290930B018093FD
:100880000A0141E06DE084E692E00E94050D60E01F
:1008900084E692E00E94A01141E06EE002C041E0D7
:1008A0006DE084E692E00E94050D0E94730264E60A
:1008B00070E00E945F124AE050E084E692E00E94FD
:1008C0004A120F900F90DF91CF9108950E948402F9
:1008D0000E94DE0280913C020E948A0380933C02C7
:1008E0000E94CF036EE170E080E090E00C94190E5E
:1008F000CF93DF9322E040E167E284E692E00E943A
:100900007B0C10923E0210923F0281E080934002E5
:1009100010924102109242028093430210924402CC
:10092000809345021092460281E090E00E94C91235
:1009300090934A028093490287E891E090934C0299
:1009400080934B0285E991E090934E0280934D0293
:100950008EE991E09093500280934F0210925802DA
:1009600088EE93E0A0E0B0E08093590290935A02A1
:10097000A0935B02B0935C0285E180935D021092CC
:100980005F0210925E021092600210926102109259
:1009900062021092630286E290E00E945E11EC0116
:1009A0008DE092E09983888381EE91E09B838A8336
:1009B0008FEF8C838D8388E68E8B87E0EEE0F1E00D
:1009C000DE01579601900D928A95E1F787E0E5E107
:1009D000F1E0DE015E9601900D928A95E1F7D093E9
:1009E0004802C093470280E090E00E94F013809399
:1009F0003D02DF91CF910895CF92DF92EF92FF9267
:100A00000F931F93CF93DF931F92CDB7DEB7F62ED0
:100A1000122FE32E80E792E049830E94A0064981CD
:100A2000642F80E792E00E94340660E080E792E065
:100A30000E94AA06811123C0402F6F2D80E792E00B
:100A40000E949D068823D9F0F12EC12EDE2C1C2D8C
:100A50001F1980E792E00E94DC05892B11F0101726
:100A600080F080E792E00E94DC05892B29F080E786
:100A700092E00E94E405F5CF81E0101751F080E08C
:100A800008C080E792E00E94E405F60181936F01BF
:100A9000DECF0F90DF91CF911F910F91FF90EF90DC
:100AA000DF90CF900895CF92DF92FF920F931F9324
:100AB000CF93DF931F92CDB7DEB7042F122F422FB3
:100AC00080E792E059830E949D0659818823D9F0DE
:100AD000F02EC02ED52E0C2D0F1980E792E00E942B
:100AE000DC05892B11F0011780F080E792E00E946D
:100AF000DC05892B29F080E792E00E94E405F5CF20
:100B000081E0011751F080E008C080E792E00E9488
:100B1000E405F60181936F01DECF0F90DF91CF9155
:100B20001F910F91FF90DF90CF9008950F931F9327
:100B3000CF93DF93142FE90180E792E00E94A00693
:100B4000612F80E792E00E943406402F50E0BE0102
:100B500080E792E00E94070680E792E00E94BD06CF
:100B600091E0811190E0892FDF91CF911F910F913A
:100B700008950F931F93CF93DF931F92CDB7DEB7E6
:100B80008A0180E792E029830E94A0062981422FF2
:100B900050E0B80180E792E00E94070680E792E00B
:100BA0000E94BD0691E0811190E0892F0F90DF91A6
:100BB000CF911F910F9108958091A00290E0209114
:100BC000A102821B910908952091A1028091A002A7
:100BD000281750F4E22FF0E0EE55FD4F808190E0B1
:100BE0002F5F2093A10208958FEF9FEF0895E0916A
:100BF000A1028091A002E81730F4F0E0EE55FD4F1D
:100C0000808190E008958FEF9FEF08950895CF922F
:100C1000DF92EF92FF920F931F93CF93DF937C01AC
:100C2000CB018A0120917C02222389F0EB016B0128
:100C3000C40ED51ECC15DD0569F06991D701ED9183
:100C4000FC910190F081E02DC7010995F3CF642F4D
:100C50000E947907C801DF91CF911F910F91FF90FA
:100C6000EF90DF90CF900895CF93DF931F92CDB791
:100C7000DEB7698320917C022223D1F020917D028E
:100C8000203240F021E030E0FC013383228380E019
:100C900090E015C080917E02E82FF0E0E158FD4F12
:100CA000998190838F5F80937E0280937D0205C03F
:100CB00061E0CE0101960E94790781E090E00F90FB
:100CC000DF91CF910895FC011382128248EE53E028
:100CD00060E070E0448355836683778387E192E028
:100CE0009183808308951092A1021092A002109225
:100CF0007E0210927D020C94C4069A01AB0160E062
:100D000074E284EF90E00E9473122051310941098E
:100D1000510956954795379527952093B800089522
:100D2000862F413208F040E262EA72E00E94E20659
:100D30001092A1028093A002089521E00C949006E5
:100D400081E080937C0260939F0210927E02109259
:100D50007D0208950F93062F21E040917D026FE7F9
:100D600072E080919F020E94260710927E021092EC
:100D70007D0210927C020F91089561E00C94AA0606
:100D800080E792E00C94630610922F0381E0809339
:100D90002D0310922C0361E082E10E94050F61E0B7
:100DA00083E10E94050FE9EBF0E080818E7F808374
:100DB00080818D7F808388E48093B80085E4809370
:100DC000BC000895413208F03FC090912F0391116B
:100DD000FCCF91E090932F0320932D032FEF2093CE
:100DE000C20210920703240F2093060390932E0350
:100DF00090912E03880F892B80932E0380912C03D2
:100E0000813041F410922C0380912E038093BB001B
:100E100085EC01C085EE8093BC0080912F0381306A
:100E2000E1F380910703841710F44091070328E051
:100E300033E0FB01D9018A2F821B841718F48D91AE
:100E40008193F9CF842F089580E008950F93413264
:100E500008F046C090912F039111FCCF92E090933F
:100E60002F0300932D039FEF9093C202109207036C
:100E700040930603FB0168E073E0DB019A2F961BA9
:100E8000941718F491919D93F9CF10922E0390919D
:100E90002E03880F892B80932E0380912C038130A1
:100EA00041F410922C0380912E038093BB0085ECBB
:100EB00001C085EE8093BC00222321F080912F0396
:100EC0008230E1F38091C2028F3F61F08091C202D3
:100ED000803251F08091C202803341F483E007C038
:100EE00081E005C080E003C082E001C084E00F9192
:100EF0000895613298F420912F03243089F460938F
:100F0000E402FC0186EE92E0DC012A2F281B261762
:100F100018F421912D93F9CF80E0089581E0089590
:100F200082E0089585ED8093BC008091BC0084FD33
:100F3000FCCF10922F03089585EC8093BC00109293
:100F40002F0308951F920F920FB60F9211242F9323
:100F50003F934F935F936F937F938F939F93AF9341
:100F6000BF93EF93FF938091B900887F803609F497
:100F70009CC068F5883209F45BC090F4803109F4B4
:100F800054C038F4882309F4F5C0883009F44DC002
:100F9000F5C0883109F44CC0803209F45DC0EEC060
:100FA000803409F468C048F4803309F455C08833AC
:100FB00009F0E4C08093C202A8C0803509F44FC094
:100FC000883509F45DC0883409F0D8C0D5C08839A7
:100FD00009F4C6C0A8F4883709F467C038F4883625
:100FE00009F463C0803709F460C0C8C0883809F4C8
:100FF000B7C0803909F45FC0803809F0BFC05BC05A
:10100000803B09F485C038F4803A09F466C0883A18
:1010100009F47EC0B3C0803C09F4A6C0883C09F442
:10102000A3C0883B09F489C0A9C080912E0310C0D9
:101030009091070380910603981770F5E0910703DC
:1010400081E08E0F80930703F0E0E85FFC4F808122
:101050008093BB0085EC85C08093C2028DC0E09177
:10106000070381E08E0F809307038091BB00F0E0BF
:10107000E85FFC4F808390910703809106036DC069
:10108000E091070381E08E0F809307038091BB00FE
:10109000F0E0E85FFC4F808380912D0381116CC0EC
:1010A00081E080932C0384EA60C083E080932F0367
:1010B0001092C302CFCF8091C302803208F050C09B
:1010C000E091C30281E08E0F8093C3028091BB0048
:1010D000F0E0EC53FD4F8083BDCF8091C30280329E
:1010E00030F4E091C302F0E0EC53FD4F10820E9417
:1010F00092076091C30270E0E0912803F091290308
:1011000084EC92E009951092C3020E949C0736C0BD
:1011100084E080932F031092E5021092E402E091A4
:101120002A03F0912B0309958091E402811105C0F7
:1011300081E08093E4021092E602E091E50281E012
:101140008E0F8093E502F0E0EA51FD4F808180939D
:10115000BB009091E5028091E402981708F47ACFE1
:1011600085E88093BC000AC085EC8093BC00109297
:101170002F0304C01092C2020E949207FF91EF91C8
:10118000BF91AF919F918F917F916F915F914F919F
:101190003F912F910F900FBE0F901F9018959F9227
:1011A000AF92BF92CF92DF92EF92FF920F931F9375
:1011B000CF93DF93EC01A62E142FB22E9A8C0E94AF
:1011C000EA0DCB8CDC8CED8CFE8CA70196010E9485
:1011D0007312F694E794D794C7946C157D058E0529
:1011E0009F0510F041E0901240E01230B9F128F470
:1011F000112351F01130A1F0D7C0133009F450C0C1
:10120000143009F484C0D0C0EB85FC85EB0DF11DD2
:1012100041117AC08A2D873008F086E0805D75C064
:101220005A2D543608F053E62B2D30E0EB85FC8523
:10123000E20FF31F411106C0852F6AE00E9453128E
:10124000805D01C080E280832F5F3F4FEB85FC858E
:10125000E20FF31F4111A6C0852F9FC02A2D273012
:1012600008F026E08B2D90E0EB85FC85E80FF91F58
:10127000411106C0AF85B889A20FB11D3C9101C0D4
:1012800030E230830196EB85FC85E80FF91F4111B0
:101290003BC0AF85B889A20FB11D11968C9135C0A6
:1012A0005A2D573308F056E38B2D90E0EB85FC85E3
:1012B000E80FF91F411106C0A989BA89A50FB11D10
:1012C0002C9101C020E22083EB85FC859C012F5FDF
:1012D0003F4FE20FF31F411107C0A989BA89A50F3B
:1012E000B11D11962C9101C020E220830296EB855E
:1012F000FC85E80FF91F411107C0A989BA89A50F1C
:10130000B11D12968C9101C080E280834DC01A2DD0
:10131000143608F013E62B2D30E0EB85FC85E20F48
:10132000F31F41110AC06F8D862F90E001976AE08C
:1013300070E00E945F12605D01C060E26083EB8537
:10134000FC85C9010196E80FF91F41110AC06F8D94
:10135000862F90E001976AE070E00E945F12805D46
:1013600001C080E28083EB85FC85B9016E5F7F4F11
:10137000E60FF71F411106C0812F6AE00E94531249
:10138000805D01C080E280832D5F3F4FEB85FC854F
:10139000E20FF31F411106C0812F6AE00E94531231
:1013A000905D01C090E29083DF91CF911F910F91EA
:1013B000FF90EF90DF90CF90BF90AF909F900895F7
:1013C000CF93DF93EC0189859A85DC01ED91FC9147
:1013D0000280F381E02D60E00995282F269526955F
:1013E00026952E71922F990F990F920F8F70980F4B
:1013F0009B8B988389859A85DC01ED91FC91028015
:10140000F381E02D61E00995282F269526952695F4
:101410002E71922F990F990F920F8F70980F9C8BAE
:10142000998389859A85DC01ED91FC910280F38195
:10143000E02D62E00995282F2695269526952E7198
:10144000922F990F990F920F8F70980F9D8B9B83FE
:1014500089859A85DC01ED91FC910280F381E02D74
:1014600063E00995282F2695269526952E71922FB3
:10147000990F990F920F8F70980F9E8B9D8389857E
:101480009A85DC01ED91FC910280F381E02D64E00E
:101490000995282F2695269526952E71922F990F1E
:1014A000990F920F8F70980F9F8B9F8389859A85D4
:1014B000DC01ED91FC910280F381E02D65E009955E
:1014C000282F2695269526952E71922F990F990FE4
:1014D000920F8F70980F988F988789859A85DC0175
:1014E000ED91FC910280F381E02D66E00995982F43
:1014F0009F7091508695869586958E71282F220F24
:10150000220F280F920F998F9E830E94EA0D6AA3E3
:101510007BA38CA39DA3DF91CF9108956F927F92BF
:101520008F929F92BF92CF92DF92EF92FF920F9392
:101530001F93CF93DF93EC010E94EA0D0AA11BA138
:101540002CA13DA1601B710B820B930B28EE33E0A5
:1015500040E050E00E9473120F89188D023081F034
:10156000602F70E081E090E0083010F480E090E0BF
:10157000860F971F81709927EEE1BE2EB80E0BC023
:10158000812F90E083709927892B19F47DE1B72E84
:1015900002C06CE1B62E8B8939014A01680E711CBC
:1015A000811C911CC401B3013CE3C32ED12CE12C5E
:1015B000F12CA70196010E94731268838C8939016E
:1015C0004A01680E711C811C911CC401B301A70162
:1015D00096010E94731269838D8969017A01C80E90
:1015E000D11CE11CF11CC701B60128E130E040E04C
:1015F00050E00E9473126B83898D820F873010F444
:101600008E8301C01E828E8939014A01680E711CC9
:10161000811C911CC401B3012B2D30E02F5F3F4F83
:10162000442737FD4095542F0E947312620F6D833B
:10163000CA01B901600F711D811D911D2DE030E0BF
:1016400040E050E00E947312620F6F83CA01B9013B
:10165000610F711D811D911D24E630E040E050E0D6
:101660000E9473126887DF91CF911F910F91FF90B5
:10167000EF90DF90CF90BF909F908F907F906F9072
:1016800008958F929F92AF92BF92EF92FF920F9325
:101690001F93CF93DF93EC017B018AA09BA0ACA0AA
:1016A000BDA00E94EA0D681579058A059B0520F406
:1016B0001AA21BA21CA21DA288A199A1009721F425
:1016C000CE010E94E00919C04AA15BA16CA17DA1D5
:1016D000411551056105710599F34A015B01880EB9
:1016E000991EA11CB11C0E94EA0D681579058A0596
:1016F0009B0530F7CE010E948E0A2B81822F6CE071
:101700000E945312911101C09CE09A8381E02C3019
:1017100008F480E08C83F70101900020E9F731970D
:10172000EE19FF0911E01E0F90E0492F50E04E170F
:101730005F0758F52D853E85D9010D900020E9F70A
:10174000BD01615071094B01821A930A80E04E0D70
:101750005F1D682F70E068157905A8F4620F731F8C
:10176000DA01BC90DB016C91B6120BC0882349F002
:101770008A3010F41F5F05C08C3010F41E5F01C06A
:101780001D5F8F5FE6CF9F5FD0CF8B859C850E94CA
:101790006113812F90E00E94C9129C878B8710E013
:1017A000B12C8B2D90E0F70101900020E9F73197E3
:1017B000EE19FF098E179F0708F08BC0F701E80F9D
:1017C000F91F8081ED85FE859081891308C007E0AF
:1017D000212F40E06E81CE010E94CF0877C0918119
:1017E000891303C06C81660F06C0928189130BC0F8
:1017F0006C81660F6C5F08E0212F42E0CE010E94F1
:10180000CF081E5F64C09381891305C004E0212FB7
:1018100041E06D81F3CF9481891305C003E0212F4E
:1018200041E06A81EBCF9581891305C003E0212F48
:1018300041E06B81E3CF9681891305C002E0212F3F
:1018400041E06981DBCF9781891305C005E0212F35
:1018500041E06F81D3CF9085891305C001E0212F2E
:1018600041E06881CBCF9185891305C006E0212F27
:1018700041E06885C3CF9285891308C08F8190E0CD
:101880000696682F660F680F05E008C093858913D8
:101890000CC08E81682F660F680F07E0212F43E090
:1018A000CE010E94CF081D5F12C09485891309C024
:1018B00006E0212F44E06885CE010E94CF081C5F1E
:1018C00006C0EB85FC85E10FF11D80831F5FB3949B
:1018D00068CFEB85FC85E10FF11D10828B859C851F
:1018E000DF91CF911F910F91FF90EF90BF90AF903C
:1018F0009F908F900895FC011382128287E292E0FC
:1019000091838083648341872287138608951F9380
:10191000CF93DF93EC01162F6C8180E792E00E9459
:10192000A006E0917002F09171026B85612B01902D
:10193000F081E02D80E792E0099580E792E0DF9169
:10194000CF911F910C94BD0628E0FC01238760E035
:101950000C94870C1F93CF93DF93EC01162F6460D8
:101960000E94870C81E090E00E94410E612F6B7F06
:10197000CE010E94870C82E390E0DF91CF911F910E
:101980000C94410E1F93CF93DF93EC01162F0E940E
:10199000870C612FCE01DF91CF911F910C94AA0C7F
:1019A000EF92FF921F93CF93DF931F92CDB7DEB7D5
:1019B0007C01162F607F642B49830E94C20C80E15A
:1019C000189FB00111244981642BC7010F90DF914A
:1019D000CF911F91FF90EF900C94C20C41E00E94B8
:1019E000D00C81E090E0089540E00C94D00C61E0D0
:1019F0000E94F40C80ED97E00C94410E62E00E948E
:101A0000F40C80ED97E00C94410ECF93DF93CDB7AB
:101A1000DEB728970FB6F894DEBF0FBECDBF28E023
:101A2000ECE1F1E0DE01119601900D922A95E1F7CB
:101A3000FC012085241710F44FEF420FFE01319670
:101A4000E40FF11DE40FF11D2081260F2068622FA5
:101A500028960FB6F894DEBF0FBECDBFDF91CF91B1
:101A60000C94F40CFC016681262F246026836C60A4
:101A70000C94F40CCF93DF93EC01423018F08D817D
:101A800088608D834887222329F0413019F48D81A5
:101A900084608D8362E370E080E090E00E94190E24
:101AA0006B85CE010E94870C68EE73E080E090E0C9
:101AB0000E94190E60E3CE010E94C20C84E991E1FC
:101AC0000E94410E60E3CE010E94C20C84E991E1C4
:101AD0000E94410E60E3CE010E94C20C86E990E0B4
:101AE0000E94410E60E2CE010E94C20C6D816062D4
:101AF000CE010E94F40C84E08E83CE010E94320D50
:101B0000CE010E94F70C82E08F8366E0CE010E9436
:101B1000F40CCE01DF91CF910C94FE0CCF93DF93A8
:101B2000EC0180E792E00E9473061D8220E04A8566
:101B30006985CE01DF91CF910C943A0D0C948E0DF6
:101B40001F920F920FB60F9211242F933F938F93F2
:101B50009F93AF93BF938091310390913203A091F3
:101B60003303B09134033091300323E0230F2D373A
:101B700020F40196A11DB11D05C026E8230F029691
:101B8000A11DB11D20933003809331039093320344
:101B9000A0933303B09334038091350390913603BF
:101BA000A0913703B09138030196A11DB11D809318
:101BB000350390933603A0933703B0933803BF9156
:101BC000AF919F918F913F912F910F900FBE0F90EA
:101BD0001F9018952FB7F8946091310370913203DC
:101BE00080913303909134032FBF08953FB7F89449
:101BF0008091350390913603A0913703B09138035B
:101C000026B5A89B05C02F3F19F00196A11DB11D57
:101C10003FBF6627782F892F9A2F620F711D811D74
:101C2000911D42E0660F771F881F991F4A95D1F7D3
:101C30000895CF92DF92EF92FF92CF93DF936B01E3
:101C40007C010E94F60DEB01C114D104E104F10402
:101C500089F00E9452120E94F60D6C1B7D0B683EAB
:101C6000734090F381E0C81AD108E108F108C85127
:101C7000DC4FEACFDF91CF91FF90EF90DF90CF90D4
:101C80000895019739F0880F991F880F991F0297BF
:101C90000197F1F70895789484B5826084BD84B586
:101CA000816084BD85B5826085BD85B5816085BD57
:101CB000EEE6F0E0808181608083E1E8F0E0108270
:101CC000808182608083808181608083E0E8F0E0B1
:101CD000808181608083E1EBF0E08081846080839B
:101CE000E0EBF0E0808181608083EAE7F0E08081D2
:101CF0008460808380818260808380818160808332
:101D00008081806880831092C10008958E3008F031
:101D10008E50877020910D0190E4299F900111242D
:101D2000822B80937C0080917A00806480937A007B
:101D300080917A0086FDFCCF809178002091790017
:101D400090E0922B0895833081F028F4813099F04F
:101D50008230A1F008958730A9F08830B9F084303E
:101D6000D1F4809180008F7D03C0809180008F77B7
:101D700080938000089584B58F7702C084B58F7DED
:101D800084BD08958091B0008F7703C08091B0002A
:101D90008F7D8093B0000895CF93DF9390E0FC0196
:101DA000E657FF4F2491FC01E256FF4F84918823B0
:101DB00049F190E0880F991FFC01EA53FF4FA5916C
:101DC000B49184549F4FFC01C591D4919FB7611188
:101DD00008C0F8948C91209582238C93888182236B
:101DE0000AC0623051F4F8948C91322F30958323DD
:101DF0008C938881822B888304C0F8948C91822BE9
:101E00008C939FBFDF91CF9108950F931F93CF9332
:101E1000DF931F92CDB7DEB7282F30E0F901EA58E3
:101E2000FF4F8491F901E657FF4F1491F901E256F3
:101E3000FF4F04910023C9F0882321F069830E9499
:101E4000A30E6981E02FF0E0EE0FFF1FE454FF4F77
:101E5000A591B4919FB7F8948C91611103C010952E
:101E6000812301C0812B8C939FBF0F90DF91CF9175
:101E70001F910F910895CF93DF93282F30E0F90140
:101E8000EA58FF4F8491F901E657FF4FD491F901C9
:101E9000E256FF4FC491CC2391F081110E94A30E12
:101EA000EC2FF0E0EE0FFF1FEE54FF4FA591B49121
:101EB0002C912D2381E090E021F480E002C080E0AD
:101EC00090E0DF91CF910895FC01818D228D90E00B
:101ED000805C9F4F821B91098F7399270895FC01A5
:101EE000918D828D981731F0828DE80FF11D858DCF
:101EF00090E008958FEF9FEF0895FC01918D828D02
:101F0000981761F0828DDF01A80FB11D5D968C914D
:101F1000928D9F5F9F73928F90E008958FEF9FEF58
:101F2000089581E091E1892B49F080E090E0892BD0
:101F300029F00E94011181110C9400000895FC0108
:101F4000848DDF01A80FB11DA35ABF4F2C91848D42
:101F500090E001968F739927848FA689B7892C9377
:101F6000A089B1898C9180648C93938D848D981312
:101F700006C00288F389E02D80818F7D80830895DB
:101F8000CF93DF93EC01888D8823C9F0EA89FB8920
:101F9000808185FD05C0A889B9898C9186FD0FC017
:101FA0000FB607FCF5CF808185FFF2CFA889B989EC
:101FB0008C9185FFEDCFCE010E949F0FE7CFDF917F
:101FC000CF910895CF92DF92FF920F931F93CF93FB
:101FD000DF931F92CDB7DEB76C01DC015B969C915D
:101FE0005B975C968C915C97981307C05096ED9127
:101FF000FC915197808185FD32C0F601038D10E080
:102000000F5F1F4F0F731127F02EF601848DF8120A
:1020100011C00FB607FCF9CFD6015096ED91FC9197
:102020005197808185FFF1CFC60169830E949F0F80
:102030006981EBCF838DE80FF11DE35AFF4F608379
:10204000D6015B960C935B975296ED91FC9153975A
:1020500080818062808381E058968C930DC0D60188
:102060005696ED91FC91579760835096ED91FC91B7
:10207000519780818064808381E090E00F90DF91B0
:10208000CF911F910F91FF90DF90CF900895BF9255
:10209000CF92DF92EF92FF92CF93DF93EC016A0130
:1020A0007B01B22EE889F98982E08083411581EEB7
:1020B000580761057105A1F060E079E08DE390E0DB
:1020C000A70196010E94731221503109410951095B
:1020D0005695479537952795211580E1380798F053
:1020E000E889F989108260E874E88EE190E0A70140
:1020F00096010E94731221503109410951095695E8
:10210000479537952795EC85FD853083EE85FF85CE
:102110002083188EEC89FD89B082EA89FB89808151
:1021200080618083EA89FB89808188608083EA8975
:10213000FB89808180688083EA89FB8980818F7D2B
:102140008083DF91CF91FF90EF90DF90CF90BF9091
:1021500008951F920F920FB60F9211242F938F9311
:102160009F93EF93FF93E0914903F0914A0380819D
:10217000E0914F03F091500382FD12C09081809155
:1021800052038F5F8F7320915303821751F0E091B8
:102190005203F0E0E75CFC4F958F8093520301C03F
:1021A0008081FF91EF919F918F912F910F900FBEA2
:1021B0000F901F9018951F920F920FB60F92112437
:1021C0002F933F934F935F936F937F938F939F933F
:1021D000AF93BF93EF93FF9389E393E00E949F0F28
:1021E000FF91EF91BF91AF919F918F917F916F91EF
:1021F0005F914F913F912F910F900FBE0F901F90C5
:10220000189589E393E00E94640F21E0892B09F47B
:1022100020E0822F089510923C0310923B0388EE39
:1022200093E0A0E0B0E080933D0390933E03A09341
:102230003F03B09340038FE292E090933A03809380
:10224000390385EC90E0909346038093450384EC3A
:1022500090E0909348038093470380EC90E0909344
:102260004A038093490381EC90E090934C03809360
:102270004B0382EC90E090934E0380934D0386ECE9
:1022800090E09093500380934F031092520310926A
:1022900053031092540310925503089508950E9419
:1022A0004B0E0E944E110E942502C1E9DFE00E9400
:1022B00066042097E1F30E94910FF9CF0C94C912A4
:1022C000CF92DF92EF92FF920F931F93CF93DF9302
:1022D0006C017A01EB01E60EF71E00E010E0CE156E
:1022E000DF0561F06991D601ED91FC910190F081DB
:1022F000E02DC6010995080F191FF1CFC801DF9124
:10230000CF911F910F91FF90EF90DF90CF900895A4
:102310006115710581F0DB010D900020E9F7AD0139
:1023200041505109461B570BDC01ED91FC91028095
:10233000F381E02D099480E090E008950C948811D9
:10234000DC01ED91FC910190F081E02D09948F92D8
:102350009F92AF92BF92CF92DF92EF92FF920F9334
:102360001F93CF93DF93CDB7DEB7A1970FB6F89445
:10237000DEBF0FBECDBF7C01C42EE52FCB01D22E18
:1023800019A221E02D1510F02AE0D22E8E010F5D4A
:102390001F4F8D2C912CA12CB12C6C2D7E2FA501C3
:1023A00094010E9473128C2DD29E80191124015029
:1023B00011098A3014F4805D01C0895CF8018083C2
:1023C000211531054105510521F0C22EE32FCA0127
:1023D000E4CFB801C7010E948811A1960FB6F89406
:1023E000DEBF0FBECDBFDF91CF911F910F91FF9048
:1023F000EF90DF90CF90BF90AF909F908F90089517
:10240000CF92DF92EF92FF920F931F93CF93DF93C0
:10241000EC016A017B012115310579F4E881F9812C
:102420000190F081E02D642FDF91CF911F910F91EA
:10243000FF90EF90DF90CF9009942A303105E9F4B6
:1024400077FF1AC06DE20E94A0118C014427552726
:10245000BA014C195D096E097F092AE0CE010E947C
:10246000A711800F911FDF91CF911F910F91FF90C6
:10247000EF90DF90CF9008952AE0B701A601CE013A
:10248000DF91CF911F910F91FF90EF90DF90CF9050
:102490000C94A7119A01AB01662757FD6095762F22
:1024A0000C9400120895991B79E004C0991F9617A7
:1024B00008F0961B881F7A95C9F78095089597FBB9
:1024C000072E16F4009407D077FD09D00E94A612BB
:1024D00007FC05D03EF4909581959F4F0895709527
:1024E00061957F4F0895A1E21A2EAA1BBB1BFD0127
:1024F0000DC0AA1FBB1FEE1FFF1FA217B307E407E3
:10250000F50720F0A21BB30BE40BF50B661F771F3A
:10251000881F991F1A9469F760957095809590951A
:102520009B01AC01BD01CF010895EE0FFF1F059087
:10253000F491E02D09940E94BA12A59F900DB49FCA
:10254000900DA49F800D911D11240895AA1BBB1B03
:1025500051E107C0AA1FBB1FA617B70710F0A61BA3
:10256000B70B881F991F5A95A9F780959095BC01C4
:10257000CD010895A29FB001B39FC001A39F700D2C
:10258000811D1124911DB29F700D811D1124911D7B
:102590000895CF93DF938230910510F482E090E0AC
:1025A000E091D803F091D90320E030E0A0E0B0E062
:1025B000309739F14081518148175907B8F04817D1
:1025C000590771F482819381109729F013969C9397
:1025D0008E9312972CC09093D9038093D80327C071
:1025E0002115310531F04217530718F0A901DB011D
:1025F00001C0EF019A01BD01DF010280F381E02DEE
:10260000D7CF21153105F9F0281B390B24303105BE
:1026100080F48A819B816115710521F0FB01938310
:10262000828304C09093D9038093D803FE0132962D
:1026300044C0FE01E20FF31F8193919322503109B0
:10264000398328833AC02091D6033091D703232BB6
:1026500041F420910201309103013093D70320937C
:10266000D60320910001309101012115310541F47B
:102670002DB73EB74091040150910501241B350B45
:10268000E091D603F091D703E217F307A0F42E1BD5
:102690003F0B2817390778F0AC014E5F5F4F2417C6
:1026A000350748F04E0F5F1F5093D7034093D60372
:1026B0008193919302C0E0E0F0E0CF01DF91CF91F0
:1026C0000895CF93DF93009709F487C0FC013297F8
:1026D00013821282C091D803D091D903209781F43C
:1026E00020813181280F391F8091D6039091D70323
:1026F0008217930779F5F093D703E093D6036DC063
:10270000DE0120E030E0AE17BF0750F412964D9185
:102710005C9113979D014115510509F1DA01F3CF41
:10272000B383A28340815181840F951F8A179B0731
:1027300071F48D919C911197840F951F029691834E
:10274000808312968D919C91139793838283211598
:10275000310529F4F093D903E093D8033EC0D901A1
:102760001396FC93EE9312974D915D91A40FB51FB4
:10277000EA17FB0779F480819181840F951F0296F7
:10278000D90111969C938E938281938113969C9389
:102790008E931297E0E0F0E08A819B81009719F018
:1027A000FE01EC01F9CFCE01029628813981820F1A
:1027B000931F2091D6033091D7032817390769F466
:1027C000309729F41092D9031092D80302C01382D3
:1027D0001282D093D703C093D603DF91CF9108958F
:1027E000F999FECF92BD81BDF89A992780B50895D9
:1027F000262FF999FECF1FBA92BD81BD20BD0FB61D
:10280000F894FA9AF99A0FBE01960895F894FFCFBA
:102810000000DA038000F6FFD801F6FF0201000194
:1028200002040506037F7F3F3F1FFF0700004000B3
:1028300014005400313000483A6900506F6E6564EE
:10284000656C6E696B0056746F726E696B005372C3
:1028500065646100436865747665726700507961EC
:10286000746E6974736100537562626F74610056AF
:102870006F736B726573656E6500202020202020C9
:1028800020202020005374616E64617274004375CF
:1028900073746F6D002300776141646848696D73DC
:1028A000794D445900616D706D414D504D00537527
:1028B0006E4D6F6E547565576564546875467269E0
:1028C0005361744A616E4665624D61724170724D2A
:1028D00061794A756E4A756C4175675365704F63CF
:1028E000744E6F76446563006A6867670000000095
:1028F0000084019500C300AD00DA00FC0496055386
:1029000005B905EF00DE01F100F300F500F600F86F
:1029100000FA00FC00EB012C0100000000940165AE
:102920000139010000000034060706DC05E405F764
:1029300005060600000000EE0C601100000000E239
:0C2940000F6011640F7D0F6F0FC00F00BF
:107E0000112484B714BE81FFF0D085E080938100F7
:107E100082E08093C00088E18093C10086E0809377
:107E2000C20080E18093C4008EE0C9D0259A86E02C
:107E300020E33CEF91E0309385002093840096BBD3
:107E4000B09BFECF1D9AA8958150A9F7CC24DD24C4
:107E500088248394B5E0AB2EA1E19A2EF3E0BF2EE7
:107E6000A2D0813461F49FD0082FAFD0023811F036
:107E7000013811F484E001C083E08DD089C08234E0
:107E800011F484E103C0853419F485E0A6D080C0E4
:107E9000853579F488D0E82EFF2485D0082F10E0AE
:107EA000102F00270E291F29000F111F8ED06801E7
:107EB0006FC0863521F484E090D080E0DECF843638
:107EC00009F040C070D06FD0082F6DD080E0C81688
:107ED00080E7D80618F4F601B7BEE895C0E0D1E017
:107EE00062D089930C17E1F7F0E0CF16F0E7DF06D8
:107EF00018F0F601B7BEE89568D007B600FCFDCFD4
:107F0000A601A0E0B1E02C9130E011968C91119780
:107F100090E0982F8827822B932B1296FA010C0160
:107F200087BEE89511244E5F5F4FF1E0A038BF0790
:107F300051F7F601A7BEE89507B600FCFDCF97BE46
:107F4000E89526C08437B1F42ED02DD0F82E2BD052
:107F50003CD0F601EF2C8F010F5F1F4F84911BD097
:107F6000EA94F801C1F70894C11CD11CFA94CF0C13
:107F7000D11C0EC0853739F428D08EE10CD085E9AC
:107F80000AD08FE07ACF813511F488E018D01DD067
:107F900080E101D065CF982F8091C00085FFFCCF94
:107FA0009093C60008958091C00087FFFCCF809118
:107FB000C00084FD01C0A8958091C6000895E0E648
:107FC000F0E098E1908380830895EDDF803219F02E
:107FD00088E0F5DFFFCF84E1DECF1F93182FE3DFCA
:107FE0001150E9F7F2DF1F91089580E0E8DFEE27F6
:047FF000FF270994CA
:027FFE00040479
:0400000300007E007B
:00000001FF